:020000040000FA
:030000000200D724
:1000830002041100000080FBE490020078887902EA
:100093008002F0A3D8FCD9FA7A877B039001077812
:1000A3000F79018015E493A3AD82AE838A828B839B
:1000B300F0A3AA82AB838D828E83D8E9D9E77582B8
:1000C300B775830A74001200E9758286758300741C
:1000D300001200E975D0007581BF750E00750F021F
:1000E300759F0002008BC09FF59FE473D09F22D0C1
:1000F30083D082C09FE493C0E0740193C0E0740294
:1001030093F59F22FF0000000000000000000000A4
:1001130049311200F25104001200F20905001200E5
:10012300F26105001200F28E06001200F2210700B0
:100133001200F2BA07001200F2CA07001200F275A9
:1001430008001200F28908001200F2980B00120056
:10015300F2CC0B001200F2CB0C001200F2950C0053
:100163001200F2A90C001200F2C10C001200F2C638
:100173000C001200F21C0B001200F2440B001200E0
:10018300F2710B001200F29D08001200F2C9080080
:100193001200F2D908001200F2EF08001200F20771
:1001A30009001200F21F09001200F24909001200AF
:1001B300F26E09001200F27F09001200F2880900B2
:1001C3001200F29109001200F2A609001200F2BB1C
:1001D30009001200F2DC09001200F2EF090012001C
:1001E300F2F209001200F2FB09001200F2550A00B4
:1001F3001200F2F50B001200F2100C001200F21BB9
:100203000C001200F2440C001200F24F0C00CAC0A2
:10021300E0E6F0A308DAFAD0E0FA22CAC0E0E0A3ED
:10022300C582CCC582C583CDC583F0A3C582CCC5A9
:1002330082C583CDC583DAE6D0E0CA22250E10AF8E
:1002430008F50E400C150F8008F50E4002150FD26D
:10025300AF2200C0D0250E10AF08F50E500C050FCD
:100263008008F50E5002050FD2AFD0D022250EF52F
:100273008210AF08F50E400C150F8008F50E4002F2
:10028300150FD2AF850F8322250EF582E4350FF5C6
:100293008322E473250EC582C0E0E50F34FFC583D6
:1002A300C0E0E50EC3958224F810AF0885830F855F
:1002B300820E800885830F85820ED2AFCEF0A3E530
:1002C30020F0A37808E608F0A3DEFAEFF0A3E581B7
:1002D30024FAF8E608F0A3E608F0A3E608F0A3087A
:1002E30008E608F0A3E608F0A315811581D0E0FE27
:1002F300D0E0F8158115811581E8C0E0EEC0E02259
:10030300850F83850E82E0A3FEE0A3F5207808E045
:10031300A3F608DFFAE0A3FFE0A3C0E0E0A3C0E098
:10032300E0A3C0E0E0A3C0E0E0A3C0E010AF088515
:10033300820E85830F800885820E85830FD2AFD00E
:1003430083D0820200EFC0D0250EC582C0E0E50F46
:1003530034FFC583C0E0E50EC3958224F310AF08D4
:1003630085830F85820E800885830F85820ED2AF29
:10037300C8F0A3E9F0A3EAF0A3EBF0A37908E70937
:10038300F0A3D8FAECF0A3EDF0A3EEF0A3EFF0A303
:10039300D0E0F0A3D0E0F0A3D0E0F0A3E520F0A3F9
:1003A300E5F0F0A322850F83850E82E0C0E0A3E091
:1003B300F9A3E0FAA3E0FBA37808E0F608A3DFFAC9
:1003C300E0FCA3E0FDA3E0FEA3E0FFA3E0C0E0A305
:1003D300E0C0E0A3E0F5D0A3E0F520A3E0A3F5F0AF
:1003E30010AF0885830F85820E800885830F858271
:1003F3000ED2AFD082D083D0E0F8D0E03274028046
:1004030000C0E0F404120270D0E012021122C0E036
:1004130074F2120349A2AFE433FEC2AFE5E9A2E6E8
:1004230050209002FCE0F8A3E0F9E849600E900246
:10043300FCE0F8A3E0F5838882120295759B0053D4
:10044300E9BFEEF8EEA2E092AF7F010203A874F7D2
:10045300120297E9FEEAF8EBF9E8FAE9FB740B2ECE
:10046300C0E08A828B83D0E0F0900207E0F8A3E03B
:10047300F5838882A3A3A3A3A3E0600678617988A8
:10048300800478417988E8C0E08A828B83A3D0E036
:10049300F0E4C9F8E8C0E08A828B83A3A3D0E0F03C
:1004A300900200E0C0E08A828B83A3A3A3D0E0F094
:1004B300900207E0F8A3E0F5838882A3A3E0F8A302
:1004C300E0F98A828B83A3A3A3A3E8F0A3E9F08ACC
:1004D300828B83A3A3A3A3A3A3ECF0A3EDF09002C9
:1004E30007E0F8A3E0F5838882E0F8A3E0F98A82C5
:1004F3008B83A3A3A3A3A3A3A3A3E8F0A3E9F07906
:100503000A7F0102030374F7120297ECFEEDFF89E1
:1005130008A908EAFCEBFD7A097B02120115E9FD43
:100523007C00802BECF87900EE28F582EF39F58317
:10053300E0C0E0EDFA7B00ECF87900EA28F8EB394B
:10054300F9740928F582740239F583D0E0F00CECD4
:10055300C3950840CFED2508F97F0102030374F723
:100563001202977E7C7F021201C31201697901EEA8
:10057300FAEFFB1201AB8E828F83E0C2E7F08E822B
:100583008F83E0640570528E828F83E0F97A7D7BDE
:10059300021201AB8E828F83A3E0A2E55004D2F056
:1005A3008002C2F0A2F0E43390038FF078807902E6
:1005B30088828983A3E0A2E740030206838E828FA9
:1005C30083A3A3A3E0F8900200E06860030206831C
:1005D3009002017401F00206838E828F83E024F57A
:1005E30090038CF08E828F83E0F97A7D7B02120177
:1005F300AB8E828F83A3E0A2E55004D2F08002C2C7
:10060300F0A2F0E43390038FF08E828F83A3A3A331
:10061300A3A3A3A3A3E0F8A3E0F9900388E8F0A3BE
:10062300E9F090038D7486F0A37402F090038CE0DC
:10063300F83395E0F990038DE028F8A3E039F988C1
:10064300828983E0900390F088828983A3E0A2E704
:100653005022900387E0F88E828F83A3A3A3E068E0
:1006630060128E828F83A3E054DF6441700690038F
:10067300917401F08E828F83A3A3A3E0900387F08C
:1006830012016F1201C97F0102030374F71202976B
:10069300EAFEEBFF120187E96401700479018079B6
:1006A30012016F900207EEF0A3EFF090038D740038
:1006B300F0A37400F09002027401F07C007D007ED0
:1006C300007F00900203ECF0A3EDF0A3EEF0A3EFA4
:1006D300F0900207E0F8A3E0F5838882A3A3A3A325
:1006E300E0F9120193900207E0F8A3E0F583888212
:1006F300E0FAA3E0FB120199900207E0F8A3E0F50A
:10070300838882A3A3E0FAA3E0FB12019F7A217BF3
:10071300011201CF12016979007F0102030374F40E
:10072300120297EAFEEBFF8C0A8D0B8909900202F5
:10073300E070031201B7E509C39467500585090802
:1007430080037508678508091201D51201C3A90939
:10075300AC0AAD0BEEFAEFFB12011BE9F97A097B48
:10076300021201A51201C91201B1E960027E0190D2
:100773000207E0F8A3E0F5838882A3A3A3A3A3E081
:10078300601C9002017400F07A4A7B0212017B9094
:100793000201E06004740080027401FE80027E00A6
:1007A300900202E070031201BD900200E02401F008
:1007B300EEF97F04020303C082C083900391E0F942
:1007C300D083D0820200EF74F21202978A088B0959
:1007D300890AECFEEDFF12016F90038CE0FA33956A
:1007E300E0FBA80A7900C3EA98EB99A2D265D0335B
:1007F300500D90038CE0F50C3395E0F50D800685E4
:100803000A0C750D00780C12040090038DE0FCA314
:10081300E0FDAA08AB0912020B7402120255EE4F57
:10082300602012018DE9F8900390E0FA3395E0FB24
:100833007900EAC398F8EB99F98E828F83E8F0A3E5
:10084300E9F09003917400F012016990038CE0FACF
:100853003395E0FBA80A7900C3EA98EB99A2D26525
:10086300D033500790038CE0F98002A90A7F060277
:100873000303C082C0839002027401F01201B7D057
:1008830083D0820200EFC082C0839002027400F022
:100893001201BDD083D0820200EFC082C083906179
:1008A30089E04460F09061FA7409F09061B27415C4
:1008B300F09061AE7400F01201DB1201C97900D02F
:1008C30083D0820200EFC082C083900393E0F9D00B
:1008D30083D0820200EFC082C08375F005E9A424AF
:1008E300D490618FF0D083D0820200EFC082C083A6
:1008F300EA906174F0E4CBFAEA906175F0D083D0AA
:10090300820200EFC082C083EA906172F0E4CBFA06
:10091300EA906173F0D083D0820200EFC082C0837B
:1009230075E1EE7591FD78008010E8FC7D00EA2CFE
:10093300F582EB3DF583E0F5D908E8C39940EBD0A8
:1009430083D0820200EFC082C0838015E5D9C0E066
:100953008A828B83D0E0F08A828B83A3AA82AB83C3
:1009630019E970E8D083D0820200EF75E1E9E591DF
:10097300A2E150FA7591FD79000200EF75E1EC7583
:10098300E1E30200EF75E1EF75E1EC0200EFC082F5
:10099300C0839061A3E0C2E6F0539AFED083D08275
:1009A3000200EFC082C0839061A3E0D2E6F0439AD5
:1009B30001D083D0820200EFC082C083A2AFE433B0
:1009C300F8C2AF9002FCEAF0A3EBF0E8F9E8A2E08A
:1009D30092AFD083D0820200EFC082C08390619334
:1009E300E0542270F8D083D0820200EF0200EF536C
:1009F300F5FE53FFFE0200EFC082C08374FF1202B4
:100A03003F900394AC0EAD0F740112021E900300CD
:100A13007400F0A37420F09003027411F0900303A8
:100A23007401F09002FE7430F0A37425F07AFE7B1B
:100A330002120127E91201457901AC0EAD0F7AFFCD
:100A43007BFF12012DE97401120255D083D082027B
:100A530000EFC082C0839003007400F0A37420F001
:100A63009003027411F09003037401F09002FE747A
:100A730020F0A37425F07AFE7B02120127E912010C
:100A83003F120133E960FA7C007D0079807A067BAE
:100A930003120139E9F87900C3E89401E99400A24B
:100AA300D265D03340077A067B031201FFD083D08F
:100AB300820200EF1201751201F31201E112015DCE
:100AC300120163120187E9803E1201E71201ED90E2
:100AD3000304E02401F0A3E03400F07AF47B011274
:100AE3000181900304E064027004A3E0640070D900
:100AF3009003867400F09003047400F0A37400F074
:100B03007A327B00120181120205E9900386F0908C
:100B13000386E0643170DF80C9C082C0837900122C
:100B23000151E96010790112014B7900120151E979
:100B33006003120157790012014BD083D082020067
:100B4300EFEBC313FBEA13FAEAF8EBF9E824FFFA35
:100B5300E934FFFBE84960130000000000000000D7
:100B630000000000000000000080DD0200EF74F7C9
:100B7300120297EAFEEBFFEEF8EFF9E824FFFEE935
:100B830034FFFFE84960097AE87B0312017B80E7C1
:100B93007F01020303E5C65480F853BEFBE59DA223
:100BA300E550FAE59DA2E240F40074016970077410
:100BB3004948F5C68005E9700288C6AAC6A89EEA18
:100BC3006870FA43BE040200EFE9FAE59EA2E6402C
:100BD300047901801AEA700553C67F800874016A9C
:100BE300700343C680A9C6A89EE96870FA7900021B
:100BF30000EF75F10075F33C53FF3F43868075C5E5
:100C03000A75C23B85C4C44386400200EF89C1A272
:100C1300E950FCC2E90200EF74F7120297EAFEEB17
:100C2300FF80128E828F83E0F91201F98E828F8307
:100C3300A3AE82AF838E828F83E070E77F010203CE
:100C430003A28B50FCA9C1C28B0200EF74F61202FF
:100C530097EAF8EBF9740A12028BE0FEA3E0FF8037
:100C6300188C828D83E088828983F0A3A882A9836C
:100C73008C828D83A3AC82AD838E088F09E5082413
:100C8300FF1EE50934FFFFE508450970D47F020222
:100C9300030353F4F243FE0D53F5FE43FF01439068
:100CA3000DD2A00200EF43F4C043F10253F5DF7508
:100CB300F8C075FC0A75FA3B85FBFB0200EFD2AF67
:0A0CC3000200EFC2AF0200EF80FE56
:04000005000000D720
:00000001FF
