:020000040000FA
:0300000002008F6C
:10004B0002033C00000080FB7A007B029000BF782B
:10005B002E79018015E493A3AD82AE838A828B83C4
:10006B00F0A3AA82AB838D828E83D8E9D9E7758200
:10007B00A275830474001200A175824E75830074FF
:10008B00001200A175D0007581BF751000751102AB
:10009B00759F00020053C09FF59FE473D09F22D041
:1000AB0083D082C09FE493C0E0740193C0E07402DC
:1000BB0093F59F22FFFFFFFF46414E204F4E21201D
:1000CB00262054696D65723120537461727421203E
:1000DB000D0A0046414E204F464621200D0A0014C2
:1000EB00001200AA0605001200AA8203001200AA41
:1000FB000104001200AA1505001200AA2005001227
:10010B0000AAE004001200AAF304001200AA55048E
:10011B00001200AA6E04001200AA790400601608EF
:10012B000808C6C313C618C613C618C613C618C606
:10013B0013C6D5E0EA22E627F60809E637F60809E2
:10014B00E637F60809E637F622E026F608A3E0368E
:10015B00F608A3E036F608A3E036F622B90010BB8A
:10016B000008E88AF084F8AAF022E4FBC8FA22EB34
:10017B0070227B10C833C8C933C9335007C39AC325
:10018B00DBF280069A50012ADBEAC833F4C8C93384
:10019B00F4C9FA2275F008E4C833C8C933C933C9A6
:1001AB009AC99B5004C92AC93BD5F0ECFBC833F460
:1001BB00C8E4C9FA22700422600D18C6C333C608FE
:1001CB00C633C6D5E0F418222510C582C0E0E51170
:1001DB0034FFC583C0E0E510C3958224F810AF0847
:1001EB008583118582108008858311858210D2AF9B
:1001FB00CEF0A3E520F0A37808E608F0A3DEFAEF33
:10020B00F0A3E58124FAF8E608F0A3E608F0A3E6EC
:10021B0008F0A30808E608F0A3E608F0A31581157B
:10022B0081D0E0FED0E0F8158115811581E8C0E0A2
:10023B00EEC0E022851183851082E0A3FEE0A3F5DA
:10024B00207808E0A3F608DFFAE0A3FFE0A3C0E004
:10025B00E0A3C0E0E0A3C0E0E0A3C0E0E0A3C0E007
:10026B0010AF0885821085831180088582108583E5
:10027B0011D2AFD083D0820200A7C0D02510C58287
:10028B00C0E0E51134FFC583C0E0E510C3958224BF
:10029B00F310AF0885831185821080088583118543
:1002AB008210D2AFC8F0A3E9F0A3EAF0A3EBF0A35E
:1002BB007908E709F0A3D8FAECF0A3EDF0A3EEF080
:1002CB00A3EFF0A3D0E0F0A3D0E0F0A3D0E0F0A335
:1002DB00E520F0A3E5F0F0A322851183851082E0E1
:1002EB00C0E0A3E0F9A3E0FAA3E0FBA37808E0F6F3
:1002FB0008A3DFFAE0FCA3E0FDA3E0FEA3E0FFA36D
:10030B00E0C0E0A3E0C0E0A3E0F5D0A3E0F520A3BC
:10031B00E0A3F5F010AF0885831185821080088566
:10032B008311858210D2AFD082D083D0E0F8D0E099
:10033B0032C0E074F2120285C2AF90022BE02401AE
:10034B00F0A3E03400F0E5AFA2E5502490022BE0DF
:10035B00640A7004A3E064007016D2907A1F7B02CB
:10036B0012012290022B7414F0A37400F075AF00ED
:10037B00D2AF7F010202E474F01201D3E9FBEB6010
:10038B00708B08750900740778081201C0E4F50A30
:10039B00F50BEBF87900E875F072A4C8AAF075F0CC
:1003AB0000A42AFA75F072E9A42AF9880CE9F50D74
:1003BB003395E0F50EF50F7808790C120141E5C67F
:1003CB005407780812012885080C85090D850A0E3B
:1003DB00850B0F850C08850D09850E0A850F0B9073
:1003EB0002007808120154E50C450D450E450F70BF
:1003FB00D67F0802023F74F41201D3EAFCEBFDEC4A
:10040B00F8EDF97AFA7B00120167880A890B850AE5
:10041B0008850B09ECF8EDF97AFA7B001201678A73
:10042B000A8B0BAE0AAF0B800579FA1200F2A80803
:10043B00A909E824FFF508E934FFF509E84970E953
:10044B00EEF91200F27F0402023F43F4C043F102C3
:10045B0053F5DF75F8C075FC0A75FA3BE94A42FBA8
:10046B000200A789F9A2EA50FCC2EA0200A774F7BE
:10047B001201D3EAFEEBFF80128E828F83E0F9121A
:10048B00011C8E828F83A3AE82AF838E828F83E01B
:10049B0070E77F0102023F1200EC12010A1200FE0C
:1004AB007A007900120116120104A2A040FC7A0A0C
:1004BB007B001200F8A2A040F1A2A050FCC29090C9
:1004CB00022B7400F0A37400F01201107A047B026B
:1004DB0012012280D553F4FE43FE0153F4FD43FE7B
:1004EB0002D290D2910200A743E40F43E544D2B964
:1004FB00D2AF75DA2475DBF40200A753C6BFE59EB5
:10050B00A2E640FA53C6F80200A753F3F743FD08DF
:0E051B00C2830200A753F5FE53FFFE0200A7A5
:040000050000008F68
:00000001FF
