:020000040000FA
:030000000200D724
:10008300020DC400000080FBE49002007892790125
:100093008002F0A3D8FCD9FA7A917B029001077809
:1000A3006779018015E493A3AD82AE838A828B8343
:1000B300F0A3AA82AB838D828E83D8E9D9E77582B8
:1000C3004C75832274001200E9758286758300746F
:1000D300001200E975D0007581BF7510007511021B
:1000E300759F0002008BC09FF59FE473D09F22D0C1
:1000F30083D082C09FE493C0E0740193C0E0740294
:1001030093F59F22FF0000000000000000000000A4
:1001130049313233003031323334353637383941AF
:10012300424344454600286E756C6C20706F696EBF
:1001330074657229003031323334353637383961DA
:100143006263646566003F3F3F000000807F0000FC
:10015300803F00000000F9021550B743BA51000078
:10016300204100E7DB2E0000A0401200F26A1E00CF
:100173001200F2971F001200F22A20001200F23A36
:1001830020001200F2E520001200F29B2200120070
:10019300F2CF22001200F22F24001200F24F2300AC
:1001A3001200F26323001200F28423001200F225EE
:1001B30024001200F22A24001200F2E223001200AB
:1001C300F2F920001200F22521001200F23521007D
:1001D3001200F24B21001200F26321001200F27BA5
:1001E30021001200F2A021001200F2A92100120046
:1001F300F2BE21001200F2D321001200F2F421001A
:100203001200F2F721001200F20022001200F20A9B
:1002130024001200F2040E001200F2171300120061
:10022300F29C23001200F2F822001200F2082300CD
:10023300C008C3E096F50808A3E096420808A3E0C7
:1002430096420808A3E0964208A2D265D033E50897
:100253007001D3D00822080808E630E711120A9388
:10026300120271080808C64480C618181822181804
:1002730018E9799EC608CAC608CBC608CCC6C3709F
:10028300207996CACBCC7019798ECBCC7013798632
:10029300CC700EF9802ACA33CACB33CBCC33CC33E0
:1002A3001930E7F2CCCBCA3350147004EA30E00DB6
:1002B300E4CA3ACACB3BCBCC3CCC500209C3E913CA
:1002C300C6CC182313C6CB18C6CA18C6F922120304
:1002D3001120F01430E72B74FFFCFBFA747F8022AB
:1002E300E4FCFBFA7480801AB48008BC00F2BB0003
:1002F300EF800F50EBF9E4C39AFAE49BFBE49CFC18
:10030300E499C6CC18C6CB18C6CA18C6F922E4C9E4
:10031300C608CAC608CBC6D3330308CCC63392F08B
:10032300C3947F402E94184019C9B90704CACBCC93
:10033300225025C309CA33CACB33CBCC33CC33D9F0
:10034300F422F4600DC9CCC313CB13CBCA13CAD99F
:10035300F6CC22E4FCFBFA2214FCFBFA22E6261874
:10036300461846184622E7271947194719472218FE
:100373001818E60846087009E626087005E633F4FF
:10038300220822191919E70947097009E727097093
:1003930005E733F4220922E6084608C31346083367
:1003A3006002E633F422E7094709C31347093360C0
:1003B30002E733F42212039A60251203A960201284
:1003C30003607003020369080808E76670101819D0
:1003D300E766700A1819E76670041819E76622F4CD
:1003E3002212039A601C1203A9601712036070079C
:1003F3001203697001D322C0D01203697006D0D0F2
:10040300B322C32233D0D0501430E0F6C3E79608AA
:1004130009E7960809E7960809E796B32220E0D58D
:10042300E6970809E6970809E6970809E697B322CD
:1004330012039A601B1203A960161203607007125D
:100443000369600CB322C0D01203697005D0D022B7
:10045300C32233D0D0501330E0EBC3E7960809E74B
:10046300960809E7960809E7962220E0E4E697084C
:1004730009E6970809E6970809E697220012039A06
:10048300604F1203A96012E7548066F6120372707C
:1004930011120369703B090909F4F618F618F618E6
:1004A300F622120386701512036008080860EAE654
:1004B300447FF618768018E4F618F622120360607B
:1004C300161203697012E4F608F608F608E654807B
:1004D300F609090918181822EAC0E0EBC0E0ECC0DD
:1004E300E0EDC0E0E687F0A4FBACF008E687F0A4FB
:1004F3002CFCE435F0FA1809E687F0A42C4B6002D3
:100503007401CA35F0FCE433FB09E687F0D2F7A4A3
:100513002CCB35F0FC1908E687F0A42BCC35F0FB87
:10052300E433FD0819E687F0D2E7A42C4ACB35F073
:10053300CD3400FC09E687F0D2E7A42DCC35F0FDDD
:10054300E433FA0918E687F0D2F7A42CCD35F0CAC4
:100553003400FC08E687F0D2E7D2F7A42ACC35F0C2
:100563007A7E20E70B0ACB33CBCD33CDCC33CC33E0
:10057300CB3350147004ED30E00ED2F1E4CD3DCD19
:10058300CC3CCC3B5005DA05C2F1EB547FC63308B3
:10059300E63392F0FBE73309E733C39A502D2B7010
:1005A300190C0D4C4D70151806E608C333700D2059
:1005B300F10AA2F013F6E418800B4024E4F630F0BD
:1005C30002768018F618F618F68024D33B145010E0
:1005D30074FFA2F013F6187680E418F618F6800F6D
:1005E300A2F013F618E63303F618ECF618EDF6D07E
:1005F300E0FDD0E0FCD0E0FBD0E0FA221203A960DA
:100603004612039A603DE9687008F618F618F61862
:10061300F622748067F7120633090909748067F7B5
:100623002212039A601D1203A97005191919801A61
:10063300120372701F120386C37003E6673319191E
:100643001940071818182208080874FFF618F61836
:10065300F618F6221203866017120369702192F0CE
:100663001203607019501720F014080808090909CB
:10067300E7F61819E7F61819E7F61819E7F622123C
:10068300036060E6E869701F0808E62480F608E462
:1006930036F618547FB47F0CE654806007F6E418EE
:1006A300F618F622181822E9C6CC08C6CD08C6CE1D
:1006B30008C6CFC0E0E8C0E0EAC0E0EBC0E009E96B
:1006C300F809E7FA09E7FBE6F918E6F8C3EC98ED51
:1006D30099EE9AEBC2E7F5F0EFC2E795F0500E60A2
:1006E3000CEBCFFBEACEFAE9CDF9E8CCF8EAA2E7C6
:1006F300D2E7FAEB33FB13F5F0EEA2E7D2E7FEEF16
:1007030033FFC5F013A2E730E601B313C5F0C3C04E
:10071300E0C0F07F00C39BFB605E9418600F401D38
:1007230014601AD0E023F9D0E0F80208058AF0E952
:10073300486003D2F0E4AFF0FAF9F8803BEB30E421
:100743000D89F0EA6003D2F0E4AFF0F9CAF8EB30B8
:10075300E30D88F0EF6002D2F0AFF0E4CAC9F8EB22
:1007630054076014FBC3EA13FAE913F9E813F8EF2B
:10077300135002D2E0FFDBEDD0E0C0E030E739C335
:10078300E49FFFF5F0EC98FC42F0ED99FD42F0EEAA
:100793009AFE42F0D0E0F9D0E0F8E5F0607AE92380
:1007A300F9EE20E742D8028067C3EF33FFEC33FC56
:1007B300ED33FDEE33FE80EAEC28FCED39FDEE3A35
:1007C300FED0E023F9D0E0F84002801BC3EE13FE15
:1007D300ED13FDEC13FCEF135002D2E0FF08B80059
:1007E300067F7F74FF802EEF3350178CF020F002CA
:1007F30060100CBC000C0DBD00080EBE000408E820
:1008030060DFE933E813FFEE2313FE4F4D4C8008FE
:10081300E95480FFE4FEFDFCEE33EF33F47004FC97
:10082300FD7E80D0E0FBD0E0FAD0E0F8D0E0CFC688
:1008330018CEC618CDC618CCC6F92212039A700476
:10084300181818221203A9700D74FFF61819F61858
:1008530019F61819F622E7548066F6120360700F32
:1008630012036970F014F608F608F608F680D11240
:100873000369700CF608F608768008E6447F80EC7E
:10088300120389700C12037560BFE65480F6E4808E
:10089300BB120375700519191980A5E869700C76E8
:1008A3003F18768018F618F6E8F922E6CDC0E0186E
:1008B300ECC0E0E633CD33CDD313F6E719FCE719EB
:1008C3001933CC33C3947F400ECD9D502408E65496
:1008D30080F6E418F6800FF4043D14501408E6443F
:1008E3007FF6187680E418F618F6D0E0FCD0E0FD29
:1008F30022CCD313CCFD18E4C6CBC0E018E4C6CA9F
:10090300C0E00808ED08C633E613F618E433C675ED
:10091300F003C3CA97CA09CB97CB199C40047D083F
:10092300802EBD00030209E716B6FF05060608166A
:1009330018C3CA33CACB33CB33CA27CA09CB37CB85
:10094300193CC37D08803E187D0820E75CC633C68A
:10095300CA33CACB33CB33DDF1D5F0EB30E77BCAF7
:1009630097CA09CB974ACB199C406F4B7025E62059
:10097300E0218066187D08C3CA97CA09CB97CB19B3
:100983009CD3C633C6CA33CACB33CB3350C9DDE796
:10099300D5F0E1D3E4C636C608C636C608C636C6A1
:1009A30008C636C61818188031C3CA97CA09CB9728
:1009B300CB199CB34097C633C6CA33CACB33CB33A8
:1009C300DD34D5F02EC6A2E0C640C8CA27CA09CB7B
:1009D30037194A70BECB3CB480B90808E63308E641
:1009E30033601F181818D0E0FAD0E0FBD0E0FCD039
:1009F300E0FD22187D08CA27CA09CB37CB193CD39F
:100A0300808013F618E4B67F11F618B6FF0EF618B9
:100A1300C60470D20808768080CAF618F618F680E5
:100A2300C5E4CFC0E0E4CEC0E0E4CDC0E0E4CCC098
:100A3300E075F020E626F608E633F608E633F60816
:100A4300E633F6181818EC33FCED33FDEE33FEEF06
:100A530033FFC3EC9709ED9709EE9709EF9719193F
:100A630019400FFFEC97FC09ED97FD09EE97FE196E
:100A73001906D5F0BFECF709EDF709EEF709EFF723
:100A8300191919D0E0FCD0E0FDD0E0FED0E0FF2240
:100A9300181818E4C396F608E496F608E496F608E0
:100AA300E496F622E0F608A3E0F608A3E0F608A32E
:100AB300E0F622E6F008A3E6F008A3E6F008A3E6D2
:100AC300F022E0FAA3E0FBA3E0FCA3E0FD22E0F8C0
:100AD300A3E0F9A3E0FAA3E0FB22E8F0A3E9F0A383
:100AE300EAF0A3EBF022CAC0E0E6F0A308DAFAD0FA
:100AF300E0FA22CAC0E0E0A3C582CCC582C583CD9B
:100B0300C583F0A3C582CCC582C583CDC583DAE690
:100B1300D0E0CA22C3E498F8E499F9120B5880266E
:100B2300C3E49AFAE49BFBE920E7E9120B58E49843
:100B3300F8E499F922C3E498F8E499F9120B58E41C
:100B430098F8E499F9C3E49AFAE49BFB22EB20E7D3
:100B5300CFE920E7E0B90010BB0008E88AF084F889
:100B6300AAF022E4FBC8FA22EB70227B10C833C838
:100B7300C933C9335007C39AC3DBF280069A5001C5
:100B83002ADBEAC833F4C8C933F4C9FA2275F0087A
:100B9300E4C833C8C933C933C99AC99B5004C92AA5
:100BA300C93BD5F0ECFBC833F4C8E4C9FA222510DD
:100BB30010AF08F510400C15118008F51040021510
:100BC30011D2AF2200C0D0251010AF08F510500C81
:100BD30005118008F51050020511D2AFD0D022259F
:100BE30010F58210AF08F510400C15118008F510B0
:100BF30040021511D2AF851183222510F582E43509
:100C030011F583222510F8E43511F922E473251038
:100C1300C582C0E0E51134FFC583C0E0E510C3958C
:100C23008224F810AF08858311858210800885839C
:100C330011858210D2AFCEF0A3E520F0A37808E6A9
:100C430008F0A3DEFAEFF0A3E58124FAF8E608F052
:100C5300A3E608F0A3E608F0A30808E608F0A3E675
:100C630008F0A315811581D0E0FED0E0F8158115B9
:100C7300811581E8C0E0EEC0E022851183851082F2
:100C8300E0A3FEE0A3F5207808E0A3F608DFFAE08E
:100C9300A3FFE0A3C0E0E0A3C0E0E0A3C0E0E0A3C3
:100CA300C0E0E0A3C0E010AF088582108583118007
:100CB30008858210858311D2AFD083D0820200EFE2
:100CC300C0D02510C582C0E0E51134FFC583C0E064
:100CD300E510C3958224F310AF0885831185821034
:100CE3008008858311858210D2AFC8F0A3E9F0A3F1
:100CF300EAF0A3EBF0A37908E709F0A3D8FAECF044
:100D0300A3EDF0A3EEF0A3EFF0A3D0E0F0A3D0E0C7
:100D1300F0A3D0E0F0A3E520F0A3E5F0F0A3228553
:100D23001183851082E0C0E0A3E0F9A3E0FAA3E019
:100D3300FBA37808E0F608A3DFFAE0FCA3E0FDA339
:100D4300E0FEA3E0FFA3E0C0E0A3E0C0E0A3E0F582
:100D5300D0A3E0F520A3E0A3F5F010AF088583113D
:100D63008582108008858311858210D2AFD082D00E
:100D730083D0E0F8D0E032740280027401C0E0F462
:100D830004120BE2D0E0120AE92274028000CCC004
:100D9300E0EDC0E0E510C39CCCAD1150011D10AFD8
:100DA300068C108D1180068C108D11D2AF120AF6AD
:100DB300D0E0FDD0E0FC22EAF5F9A2EA50FCC2EA59
:100DC30022C0E074F2120CC3A2AFE433FEC2AFE55B
:100DD300E9A2E65020900289E0F8A3E0F9E849602F
:100DE3000E900289E0F8A3E0F5838882120C0F7558
:100DF3009B0053E9BFEEF8EEA2E092AF7F01020D34
:100E03002274F0120C1174FD120BB17402120BFD5B
:100E1300E9F08A088B098C0A8D0B7415120BFDE01F
:100E2300FEA3E0FF851082851183E4F0A3F08E8298
:100E33008F83A3AA82AB839002D7780C120AA77878
:100E430008790C1203B870118E828F8374691212A1
:100E5300EF746EF0A374668018780879081203B8EB
:100E630060188E828F83746E1212EF7461F0A37414
:100E73006EF0A30A0AAB8302128E9002DB780C1287
:100E83000AA77808790C1203E45003020F31900289
:100E9300DF780C120AA77808790C1203B8600302F2
:100EA3000F857417120BFDE07003020FC7851082C4
:100EB300851183C082C0837413120BFD121D43D0AE
:100EC30083D0821212C8502F851082851183C3E00C
:100ED30094FCA3E094FFA2D265D033401A740212AB
:100EE3000BFDE4121E33F8A3E0F97413120BFDC3D8
:100EF300E098F0A3E099F07413120BFD1212E5745D
:100F030018120BFDE07003020FC47417120BFDE4FB
:100F1300020FC69002E3780C120AA77808790C1224
:100F2300083E851082851183E0240A121E51900227
:100F3300E7780C120AA77808790C1203E440D490DE
:100F430002EB780C120AA77808790C1203E4400329
:100F5300020EA59002EB780C120AA77808790C12FE
:100F6300083E121E4880D89002E3780C120AA77834
:100F730008790C12047F851082851183E024F61210
:100F830012E89002EF780C120AA77808790C120481
:100F93003340D49002DB780C120AA77808790C123C
:100FA30004334003020EA59002EB780C120AA778D3
:100FB30008790C12047F8510828511831212E58053
:100FC300D27401F07402120BFDE060057A00021086
:100FD300541212D4507F8E828F837430F0EAFEEB6A
:100FE300FF7413120BFDE0FCA3E0FDEC4D700874DD
:100FF30018120BFDE0600B8E828F83742EF0A30E0C
:10100300AF837A007B0080118E828F83743012133A
:10101300107413120BFD1212E5EA24FF1AEB34FFCE
:10102300FB8510828511831212BC500C7413120BB2
:10103300FD121D43E84970D085108285118374FF2A
:10104300C39CF874FF9DF91212C850030211A67ACB
:10105300017B00807B851082851183121D43C3E4CD
:1010630098FAE499FB806985080C85090D850A0EB9
:10107300850B0F780C1202D1AC0CE50D3395E0F51E
:101083000EF50F780C1202597808790C1205FF90AF
:1010930002EB780C120AA77808790C12047FEC1281
:1010A300130AEAF8EBF9E824010AE439FBE849708A
:1010B3001F7413120BFD121D43E8497008741812B4
:1010C3000BFDE0600B8E828F83742EF0A30EAF8333
:1010D3007413120BFD1212BC508D9002F3780C1294
:1010E3000AA77808790C1203E440030211A67C01D5
:1010F300EE24FFF8EF34FFF97415120BFDE0F50849
:10110300A3E0F50988828983E0642E6010E02CF067
:10111300643A70077430F07C0180027C00E8FAE9DD
:10112300FBEA24FF18EB34FFF9C3E5089AE5099BB2
:1011330040D2ECA2E0506C7402120BFDE0603BEE77
:10114300F8EF800DEC88828983F0E824FF18E934F6
:10115300FFF9C3E50898E50999501A121298E0FCC3
:10116300742E6C70DFE824FEF582E934FFF58312F8
:1011730012A5F980D5121E48801E8E828F83A3AEDE
:1011830082AF83EEF8EF80061212981212A5F9C30C
:10119300E50898E5099940F07415120BFD121D6DD1
:1011A3007431F07417120BFDE07005801C1EAF83C1
:1011B300EE24FFF582EF34FFF583E0F874306860C6
:1011C300EC742E6870031EAF837402120BFDE07083
:1011D3000302128A12130CA3A9831212D48E828FD4
:1011E300835014742DF00EE9FF851082851183124C
:1011F3001D851212FD8006742BF00EE9FF7C007D25
:1012030000EE240AFE50010F0CEC70010D1212AE19
:10121300120B50EA12130A1212AE120B50851082EF
:10122300851183E8F0A3E9121E334970DBC3EC9404
:1012330002ED121D0240D1ECFAEDFBC3E49CF8E48D
:101243009DF9EE28F582EF39F583E0C0E0C3E49A17
:10125300F8E49BF9EE28F8EF39F9E82CF8E93DF9C1
:10126300E824F5F582E934FFF583D0E0F0EC24FFC0
:101273001CED34FFFDC3EC9401ED121D0250BCEED6
:1012830024F6FEEF34FFFFEEFAEFFB7403120BC7F5
:101293007F08020C7DE824FFFAE934FFFB8A828B86
:1012A3008322E088828983F018EB228510828511DE
:1012B30083121DCB7A0A7B0022C3E09AA3E09BA290
:1012C300D265D03322C3E098A3E099A2D265D0338C
:1012D30022851082851183C3A3E09400A2D265D036
:1012E3003322E024FFF0A3E034FFF022F0EAFEEB28
:1012F300FF8E828F8322A3E03400F985108285114B
:1013030083E8F0A3E9F02224308E828F83F0A3AE2A
:1013130082AF832274F0120C1174AE120BB18510DC
:1013230082851183121E017417120BFDECF0A3EDDD
:10133300F0740F120BFDE4F0A3801B7462120BFD1B
:10134300121D337417120BFD121D6D120C0F740F47
:10135300120BFD121D0AF0121DA7F98510828511CB
:1013630083E02401FAA3E03400FB85108285118316
:10137300121E017425696010E970C0740F120BFD11
:10138300121D337452021290121DA7642570198521
:101393001082851183E02401081212F97462120B82
:1013A300FD121D337925809B740E120BFDE4F0743E
:1013B3000D120BFDE4F0740C120BFDE4F074051236
:1013C3000BFDE4F07420120C077402120BFD1213D0
:1013D30004741E120BFD74A2F0A374028019740529
:1013E300120BFDE070077405120BFDEAF085108205
:1013F300851183E8F0A3E9121E33121CF7121D9C1A
:10140300FA24E060D924FD601724F860D924FE6033
:101413000624FD600F8011740C120BFDE00480CCD8
:10142300740D80F5740E80F1121D9C642A705C7437
:1014330064120BFD121DA2FAA3E0FB8A828B83E0E8
:10144300FCA3E0FD740A120BFDECF0A3EDF0EA241B
:1014530002FA50010B7464120BFD121DF9740A1287
:101463000BFD1212DA501F740A120BFD121D33C347
:10147300E49AFAE49BFB740A120BFD121E01740C2E
:10148300120BFDE004F01212FE8043740A120BFDEE
:10149300E4F0A3802D740A120BFD121D33EA75F0DC
:1014A3000AA4FAA9F075F00AEBA429FBEA28F8E4E8
:1014B3003BF9E824D0F8E934FFF9740A120BFD1262
:1014C3001E58121E40F874D028C3940A40C7740CE7
:1014D300120BFDE06007740E120BFDE4F0121DA762
:1014E300642E7079851082851183E0240108121D12
:1014F30057E8F0A3E9121E40642A70267464120BA5
:10150300FD121DC088828983E0FEA3E0FFE8240268
:10151300F85001097464120BFD121D8F121E58F04E
:10152300803F7E007F00121DB474D028C3940A50FC
:1015330030EE75F00AA4FEA9F075F00AEFA429FFB6
:10154300EE28F8E43FF9E824D0FEE934FFFF8510E4
:1015530082851183E02401F81212F980C97EFF7F8E
:10156300FF7A00851082851183E02401F8121D574C
:10157300E0FBA3E0F5838B82E024B4600824E460FD
:101583000624FC70057A011212FE121DB485108226
:10159300851183E02401FCA3E03400FD85108285DE
:1015A3001183ECF0A3EDF07404120BFDE8F070036B
:1015B300021B9E24BB7003021A6724FE7003021AE7
:1015C3004924EF700302179824F5700302168E1452
:1015D3007003021843147003021A67147003021A8B
:1015E30065147003021A4924FE700302184324FB96
:1015F300602414700302177C14700302179824FDEF
:1016030070030216C524FE700302179824FD7003AD
:1016130002178C021BAA7464120BFD121DE7120B36
:10162300FD121E0F120BFD121DC0E8FCE9FD74062E
:10163300120BFDE02402F508A3E03400F509EAA249
:10164300E0740F502F120BFD121D433395E0FA8CFB
:10165300828D83E8FCE9FDEAFEECF0A3EDF0A3EE56
:10166300F0A3F07464120BFD121D6DE508F0A3E501
:1016730009021359120BFD121D438C828D83121321
:10168300047464120BFD121D8F80E07464120BFD51
:10169300121DBA121DAFC0E07420120BFDD0E0F092
:1016A3007464120BFD121D6D121DD1120BFD121D60
:1016B3008F1213047421120BFDA882A983741102E3
:1016C30017727464120BFD121DE7120BFD121E0F2D
:1016D300120BFD121DE7120BFDE02402FAA3E03406
:1016E30000FB7464120BFD121DF97402120BFD1240
:1016F3001304E849700C7402120BFD74B3F0A37465
:1017030002F0121D0050047E107F277408120BFD97
:10171300E4F0A380087408120BFD121D0AF0740292
:10172300120BFD121D4388828983A3AA82AB8374A3
:1017330002120BFD121E0188828983E0600A74087D
:10174300120BFD121D4740CD7402120BFD121D2119
:101753007411120BFD1213047408120BFD121D8574
:10176300F97411120BFDE028F8A3E039F9740212A1
:101773000BFDE8F0A3E9021BC1740D120BFDE06041
:1017830008EE4F70047E017F00741E120BFD74C2BD
:10179300F0A37402F07464120BFD121DE7120BFD2B
:1017A3001213047404120BFDE06470703274061299
:1017B3000BFD121DDD120BFD121E17120BFD121D68
:1017C300D1120BFD121D8F121304741A120BFD7428
:1017D30010121E21A3F07405120BFDE40218CFEAC8
:1017E300A2E07406501B120BFD121D6D120AD17478
:1017F30013120BFD120ADD7406120BFDE0240480A4
:1018030012120BFD121DDD120BFD121E17120BFD22
:10181300E02402121DD4120BFD121D8F1213047447
:1018230004120BFDE0646F7009741A120BFD740847
:10183300809FE064757093741A120BFD740A809193
:101843007464120BFD121DE7120BFD121304EAA2BE
:10185300E074065015120BFD121D6D7808120AA7CD
:101863007406120BFDE02404801B120BFD121DAD48
:10187300F508A3E0F5093395E0F50AF50B740612B4
:101883000BFDE02402121DD4120BFD121E28120BB5
:10189300FD7808120AB69002DF780812023340215D
:1018A3007405120BFD742DF07413120BFD780812DE
:1018B3000AA77808120A967413120BFD7808120A05
:1018C300B6741A120BFD740A121E21A3F07451127E
:1018D3000BFDA882A9837402120BFD121304741169
:1018E300120BFD121E2B120BFD120AD1E8494A4BB3
:1018F300600A7419120BFD7401F0800E7419120B37
:10190300FDE4F0EE4F70030219B97402120BFD12DD
:101913001D67120BFD121E2B120BFD780C120AA76A
:10192300741A120BFD7808120AA7780C7908120AA8
:1019330024741E120BFDE02508F8A3E03509888204
:10194300F583E0C0E07402120BFD121D6DD0E0F0D0
:101953007413120BFD780C120AA7741A120BFD787C
:1019630008120AA7780C7908120A247413120BFDC3
:10197300780C120AB67413120BFD120AD1E8494A05
:101983004B7087121D00502E740E120BFDE0602663
:101993007405120BFDE06004D2F08002C2F0740AF9
:1019A300120BFD121D13800E7402120BFD121E0783
:1019B300120BFD121D7E7402120BFD121D217451B8
:1019C300120BFDC082C0837402120BFD121D33D0B3
:1019D30083D082E582C39AFAE5839BFBC3EA9EEB3D
:1019E300121D5040C3740D120BFDE07003021BC2A5
:1019F3007419120BFDE0A2E04003021BC27404122F
:101A03000BFDE064786005E064587010E08882891B
:101A130083F0E824FF18E934FFF98017E0646F606E
:101A230003021BC27402120BFD121DA26430700369
:101A3300021BC27402120BFD121E07120BFD121DB4
:101A43006D7430021BC17408120BFD7401F0A3E422
:101A5300F07404120BFDE024FEF0EE4F700F7E01D4
:101A63008012E4F07408120BFDE4F0A3F0121D00E1
:101A730050047E067F007464120BFD121DE7120BE7
:101A8300FD121E0F120BFD121D6D780C120AA774A6
:101A930006120BFDE02404121DD4120BFD121E28A6
:101AA300120BFD780C120AB69002DF7808120AA70F
:101AB300780C790812043350227405120BFD742D2F
:101AC300F07413120BFD7808120AA7E50BB2E7F5C1
:101AD3000B7413120BFD7808120AB6740A120BFD6D
:101AE3007420120C078909E028F8A3E03509F9747A
:101AF30002120BFD121304740D120BFDE0F50878AE
:101B030008120D7E7409120BFDE0F5087808120D1A
:101B13007E7404120BFD120D8D8E088F0978081246
:101B23000D7A740A120BFDE0F97419120BFD120AF7
:101B3300C51202157406120BC77411120BFD121E87
:101B430001740E120BFDE060767405120BFDE0606C
:101B530004D2F08002C2F0740A120BFD121D13743A
:101B630011120BFDC082C0837402120BFD121D43C0
:101B7300D083D082E0C398F8A3E099F9C3E89EE943
:101B8300121D50503A7402120BFD121D67120BFD09
:101B9300121E07120BFD121D7E80C4851082851153
:101BA30083121D2A1212FD7402120BFD74D3F0A3CB
:101BB3007402F07411120BFD74D6F0A37402F07466
:101BC30011120BFDC082C0837402120BFD121D4360
:101BD300D083D082E0C398FEA3E099FF740A120B6E
:101BE300FD121D47500A7408120BFDE4F0A3803068
:101BF3007405120BFDE06004D2F08002C2F0740A97
:101C0300120BFDE0C39EFAA3E09FFBA2F0E433F8BE
:101C1300EA98F8EB9400F97408120BFDE8F0A3E9D5
:101C2300F0740C120BFDE0702B80197462120BFD23
:101C3300121D39120BFD121D6D120C0F740F120BB6
:101C4300FD121E4E7408120BFD121DED120BFD1238
:101C530012DA50D77405120BFDE060517462120B57
:101C6300FD121D337405120BFDE0F97417120BFD01
:101C7300121D6D120C0F802D7462120BFD121D3399
:101C83007402120BFD121DADF97417120BFD121D18
:101C93006D120C0F7402120BFDE0121CF77402128A
:101CA3000BFD121304740F120BFD121E4EEE24FFD4
:101CB3001EEF34FFFFC3121D0250BD740C120BFD47
:101CC300E0700302135A7408120BFD121DED120B80
:101CD300FD1212DA500302135A7462120BFD121D25
:101CE30039120BFD121D6D120C0F740F120BFD1226
:101CF3001E4E80D22401F8A3E03400F922C3EF94EE
:101D030000A2D265D03322E02401F0A3E034002204
:101D1300A2F0E433F8E098FEA3E09400FF22121D42
:101D23002522121D2AF922E024FFF8A3E034FF2222
:101D3300E0FAA3E0FB22E0FAA3E0FB792074172288
:101D4300121DCB22C3E09EA3E0121D50229FA2D2FC
:101D530065D03322121D5B22A3E03400F985108283
:101D630085118322121D25740222121D7122121D58
:101D73007522E0F8A3E0F583888222121D71743086
:101D8300F022121DCBC3E498F8E49922121D93228A
:101D9300E0FAA3E0F5838A822285108285118312FB
:101DA3001D93E022851082851183E0F8121D77E0F0
:101DB30022851082851183121D71E0F822121DC441
:101DC30022121D75121DCB22E0F8A3E0F922E024B4
:101DD30002F8A3E03400F9746422121DC4E8FAE99E
:101DE300FB741322121DC4740622E024FFF0A3E047
:101DF30034FFF0740822E0FCA3E0F5838C82EAF060
:101E0300A3EBF022E8F0A3E9F0740222E8F0A3E9DF
:101E1300F0740622EAF0A3EB121E21740622F0A34B
:101E2300E4F0A3F022121D93E8F0A3E9F074132267
:101E3300121E3722F0851082851183E022121E378D
:101E4300121D76E022851082851183E02401F0A320
:101E5300E03400F022E8F0A3E9121E372401F8125F
:101E63001D5BE8F0A3E92274F7120C117E097F02CF
:101E73001201EB1201AF7901EEFAEFFB1201DF8ED3
:101E8300828F83E0C2E7F08E828F83E06405705215
:101E93008E828F83E0F97A0A7B021201DF8E828FB2
:101EA30083A3E0A2E55004D2F08002C2F0A2F0E4E2
:101EB30033900299F0780D790288828983A3E0A296
:101EC300E74003021F8C8E828F83A3A3A3E0F890C5
:101ED3000200E0686003021F8C9002017401F002AB
:101EE3001F8C8E828F83E024F5900296F08E828F72
:101EF30083E0F97A0A7B021201DF8E828F83A3E0EB
:101F0300A2E55004D2F08002C2F0A2F0E4339002C2
:101F130099F08E828F83A3A3A3A3A3A3A3A3E0F823
:101F2300A3E0F9900292E8F0A3E9F090029774130A
:101F3300F0A37402F0900296E0F83395E0F9900272
:101F430097E028F8A3E039F988828983E090029A20
:101F5300F088828983A3E0A2E75022900291E0F8FF
:101F63008E828F83A3A3A3E06860128E828F83A3E4
:101F7300E054DF6441700690029B7401F08E828FFF
:101F830083A3A3A3E0900291F01201B51201F17FA4
:101F930001020C7D74F7120C11EAFEEBFF1201C172
:101FA300E964017004790180791201B5900207EEAA
:101FB300F0A3EFF09002977400F0A37400F0900286
:101FC300027401F07C007D007E007F00900203EC30
:101FD300F0A3EDF0A3EEF0A3EFF0900207E0F8A377
:101FE300E0F5838882A3A3A3A3E0F91201CD9002B5
:101FF30007E0F8A3E0F5838882E0FAA3E0FB12018F
:10200300D3900207E0F8A3E0F5838882A3A3E0FA64
:10201300A3E0FB1201D97A6D7B011201F71201AF24
:1020230079007F01020C7DC082C08390029BE0F99E
:10203300D083D0820200EF74F2120C118A088B094C
:10204300890AECFEEDFF1201B5900296E0FA339592
:10205300E0FBA80A7900C3EA98EB99A2D265D033D2
:10206300500D900296E0F50C3395E0F50D80068552
:102073000A0C750D00780C120D7A900297E0FCA300
:10208300E0FDAA08AB091202217402120BC7EE4F3E
:1020930060201201C7E9F890029AE0FA3395E0FB59
:1020A3007900EAC398F8EB99F98E828F83E8F0A35D
:1020B300E9F090029B7400F01201AF900296E0FAEF
:1020C3003395E0FBA80A7900C3EA98EB99A2D2659D
:1020D300D0335007900296E0F98002A90A7F0602E6
:1020E3000C7DC082C0839002027401F01201E5D01E
:1020F30083D0820200EFC082C083906189E0446094
:10210300F09061FA7409F09061B27415F09061AEC9
:102113007400F01201FD1201F17900D083D0820224
:1021230000EFC082C08390029DE0F9D083D0820289
:1021330000EFC082C08375F005E9A424D490618FB9
:10214300F0D083D0820200EFC082C083EA90617432
:10215300F0E4CBFAEA906175F0D083D0820200EF0D
:10216300C082C083EA906172F0E4CBFAEA906173B3
:10217300F0D083D0820200EFC082C0838015E5D9FE
:10218300C0E08A828B83D0E0F08A828B83A3AA8209
:10219300AB8319E970E8D083D0820200EF75E1ECDC
:1021A30075E1E30200EFC082C0839061A3E0C2E661
:1021B300F0539AFED083D0820200EFC082C0839096
:1021C30061A3E0D2E6F0439A01D083D0820200EF0C
:1021D300C082C083A2AFE433F8C2AF900289EAF0B1
:1021E300A3EBF0E8F9E8A2E092AFD083D08202003B
:1021F300EF0200EF53F5FE53FFFE0200EFC082C073
:10220300837480120BB1120185120179E960FA7CA3
:10221300007D007980AA10AB1112017FE9F87900E3
:10222300C3E89401E99400A2D265D03340DB851062
:1022330082851183E0643370D07A017B001201A39D
:102243007A9E7B0212022D80C01201BB12020F1272
:10225300020312019D1201A91201C1E96401700375
:1022630012019790028D7400F0A37420F090028FF6
:102273007411F09002907401F090028B7420F0A31B
:102283007425F07A8B7B02120173E96401700312E7
:1022930001971202090200EFE5C65480F853BEFB12
:1022A300E59DA2E550FAE59DA2E240F400740169C0
:1022B3007007744948F5C68005E9700288C6AAC646
:1022C300A89EEA6870FA43BE040200EFE9FAE59EAD
:1022D300A2E640047901801AEA700553C67F80089C
:1022E30074016A700343C680A9C6A89EE96870FAA0
:1022F30079000200EFEEC0E0E9FA7B00120DBAD0DC
:10230300E0FE0200EF74F6120C1174FE120BB174AE
:102313000C120C07851082851183E8F0A3E9F0A85D
:1023230010A911880889097808120D7AE4F508F5CF
:10233300097808120D7A7C277D0212021B7404129D
:102343000BC77402120BC77F02020C7D53F4F243D6
:10235300FE0D53F5FE43FF0143900DD2A00200EFA3
:10236300EAA2E05002C290EA54026003859090EA28
:1023730054046003859090EA54086002C2A00200EE
:10238300EF43F4C043F10253F5DF75F8C075FC0A5F
:1023930075FA3B85FBFB0200EF74F6120C11EAF8A9
:1023A300EBF9740A120BFDE0FEA3E0FF80188C82A8
:1023B3008D83E088828983F0A3A882A9838C828D90
:1023C30083A3AC82AD838E088F09E50824FF1EE545
:1023D3000934FFFFE508450970D47F02020C7DC074
:1023E30082C0837900120191E96010790112018B97
:1023F3007900120191E96003120197790012018BB0
:10240300D083D0820200EF75F10075F33C53FF3F98
:1024130043868075C50A75C23B85C4C443864002A2
:0E24230000EFD2AF0200EFC2AF0200EF80FE6A
:04000005000000D720
:00000001FF
