:020000040000FA
:030000000200D724
:10008300020E7A00000080FBE490020078067903F8
:100093008002F0A3D8FCD9FA7A057B049001077893
:1000A3009B79018015E493A3AD82AE838A828B830F
:1000B300F0A3AA82AB838D828E83D8E9D9E77582B8
:1000C3005675832974001200E9758286758300745E
:1000D300001200E975D0007581BF7510007511021B
:1000E300759F0002008BC09FF59FE473D09F22D0C1
:1000F30083D082C09FE493C0E0740193C0E0740294
:1001030093F59F22FF0000000000000000000000A4
:100113004952B82F430000804766663BC20000C8BF
:1001230042000000000000FA420000C0C0446576AF
:100133006963653A322C616464723A307825782CAD
:1001430020252E32660D0A0025730020253031321A
:100153003334353637383941424344454600286EF7
:10016300756C6C20706F696E746572290030313262
:1001730033343536373839616263646566003F3F2F
:100183003F000000807F0000803FF9021550B74315
:10019300BA510000204100E7DB2E0000A04012000E
:1001A300F2201F001200F2D81F001200F2302000CC
:1001B3001200F25D21001200F2F021001200F28C15
:1001C30022001200F29C22001200F24723001200C8
:1001D300F25B23001200F2F22A001200F2262B0037
:1001E3001200F2F62B001200F2842A001200F29899
:1001F3002A001200F2B92A001200F2DA2A001200D1
:10020300F2EC2B001200F2F12B001200F2082A008C
:100213001200F2302A001200F25D2A001200F2D915
:1002230026001200F20527001200F2152700120023
:10023300F22B27001200F24327001200F25B270083
:100243001200F28527001200F2AA27001200F2BB67
:1002530027001200F2C427001200F2CD270012007B
:10026300F2E227001200F2F727001200F21828002A
:100273001200F22B28001200F26F23001200F296F4
:1002830023001200F25F25001200F27F2500120006
:10029300F2A825001200F2C925001200F2E8250099
:1002A3001200F24E26001200F2BB26001200F22EBC
:1002B30028001200F27228001200F2BA0E00120097
:1002C300F2CD13001200F2A62B001200F24F2B0006
:1002D3001200F25F2B001200F27229001200F29C4E
:1002E3002900C008C3E096F50808A3E09642080871
:1002F300A3E096420808A3E0964208A2D265D03351
:10030300E5087001D3D00822080808E630E7111287
:100313000B45120323080808C64480C61818182280
:10032300181818E9799EC608CAC608CBC608CCC6F1
:10033300C370207996CACBCC7019798ECBCC70134D
:100343007986CC700EF9802ACA33CACB33CBCC332F
:10035300CC331930E7F2CCCBCA3350147004EA30F3
:10036300E00DE4CA3ACACB3BCBCC3CCC500209C328
:10037300E913C6CC182313C6CB18C6CA18C6F9226C
:100383001203C320F01430E72B74FFFCFBFA747FD5
:100393008022E4FCFBFA7480801AB48008BC00F26B
:1003A300BB00EF800F50EBF9E4C39AFAE49BFBE444
:1003B3009CFCE499C6CC18C6CB18C6CA18C6F92249
:1003C300E4C9C608CAC608CBC6D3330308CCC633B0
:1003D30092F0C3947F402E94184019C9B90704CAF8
:1003E300CBCC225025C309CA33CACB33CBCC33CCB5
:1003F30033D9F422F4600DC9CCC313CB13CBCA1386
:10040300CAD9F6CC22E4FCFBFA2214FCFBFA22E65E
:100413002618461846184622E72719471947194749
:1004230022181818E60846087009E626087005E63B
:1004330033F4220822191919E70947097009E72734
:10044300097005E733F4220922E6084608C3134678
:1004530008336002E633F422E7094709C313470967
:10046300336002E733F42212044C602512045B600C
:1004730020120412700302041B080808E7667010B8
:100483001819E766700A1819E76670041819E76601
:1004930022F42212044C601C12045B601712041233
:1004A300700712041B7001D322C0D012041B700604
:1004B300D0D0B322C32233D0D0501430E0F6C3E7F8
:1004C300960809E7960809E7960809E796B32220F4
:1004D300E0D5E6970809E6970809E6970809E6973D
:1004E300B32212044C601B12045B601612041270D8
:1004F3000712041B600CB322C0D012041B7005D07A
:10050300D022C32233D0D0501330E0EBC3E7960898
:1005130009E7960809E7960809E7962220E0E4E64A
:10052300970809E6970809E6970809E69722001253
:10053300044C604F12045B6012E7548066F61204A9
:1005430024701112041B703B090909F4F618F618FC
:10055300F618F622120438701512041208080860FF
:10056300EAE6447FF618768018E4F618F6221204B9
:1005730012601612041B7012E4F608F608F608E679
:100583005480F609090918181822EAC0E0EBC0E004
:10059300ECC0E0EDC0E0E687F0A4FBACF008E68732
:1005A300F0A42CFCE435F0FA1809E687F0A42C4BF0
:1005B30060027401CA35F0FCE433FB09E687F0D22C
:1005C300F7A42CCB35F0FC1908E687F0A42BCC3527
:1005D300F0FBE433FD0819E687F0D2E7A42C4ACBFD
:1005E30035F0CD3400FC09E687F0D2E7A42DCC35F5
:1005F300F0FDE433FA0918E687F0D2F7A42CCD35E1
:10060300F0CA3400FC08E687F0D2E7D2F7A42ACC7C
:1006130035F07A7E20E70B0ACB33CBCD33CDCC3309
:10062300CC33CB3350147004ED30E00ED2F1E4CD73
:100633003DCDCC3CCC3B5005DA05C2F1EB547FC633
:100643003308E63392F0FBE73309E733C39A502DBF
:100653002B70190C0D4C4D70151806E608C333703A
:100663000D20F10AA2F013F6E418800B4024E4F6FF
:1006730030F002768018F618F618F68024D33B146F
:10068300501074FFA2F013F6187680E418F618F6EB
:10069300800FA2F013F618E63303F618ECF618ED04
:1006A300F6D0E0FDD0E0FCD0E0FBD0E0FA2212046B
:1006B3005B604612044C603DE9687008F618F61852
:1006C300F618F622748067F71206E50909097480A3
:1006D30067F72212044C601D12045B700519191987
:1006E300801A120424701F120438C37003E66733A0
:1006F30019191940071818182208080874FFF61862
:10070300F618F618F622120438601712041B70212B
:1007130092F01204127019501720F01408080809F7
:100723000909E7F61819E7F61819E7F61819E7F6AD
:100733002212041260E6E869701F0808E62480F6B6
:1007430008E436F618547FB47F0CE654806007F64D
:10075300E418F618F622181822E9C6CC08C6CD0804
:10076300C6CE08C6CFC0E0E8C0E0EAC0E0EBC0E018
:1007730009E9F809E7FA09E7FBE6F918E6F8C3EC33
:1007830098ED99EE9AEBC2E7F5F0EFC2E795F050DA
:100793000E600CEBCFFBEACEFAE9CDF9E8CCF8EA30
:1007A300A2E7D2E7FAEB33FB13F5F0EEA2E7D2E7C9
:1007B300FEEF33FFC5F013A2E730E601B313C5F034
:1007C300C3C0E0C0F07F00C39BFB605E9418600F62
:1007D300401D14601AD0E023F9D0E0F80208B78A6C
:1007E300F0E9486003D2F0E4AFF0FAF9F8803BEBAC
:1007F30030E40D89F0EA6003D2F0E4AFF0F9CAF80F
:10080300EB30E30D88F0EF6002D2F0AFF0E4CAC939
:10081300F8EB54076014FBC3EA13FAE913F9E8137E
:10082300F8EF135002D2E0FFDBEDD0E0C0E030E799
:1008330039C3E49FFFF5F0EC98FC42F0ED99FD42DB
:10084300F0EE9AFE42F0D0E0F9D0E0F8E5F0607AFD
:10085300E923F9EE20E742D8028067C3EF33FFECC8
:1008630033FCED33FDEE33FE80EAEC28FCED39FD7D
:10087300EE3AFED0E023F9D0E0F84002801BC3EE4D
:1008830013FEED13FDEC13FCEF135002D2E0FF084F
:10089300B800067F7F74FF802EEF3350178CF02053
:1008A300F00260100CBC000C0DBD00080EBE00046D
:1008B30008E860DFE933E813FFEE2313FE4F4D4CE6
:1008C3008008E95480FFE4FEFDFCEE33EF33F4705F
:1008D30004FCFD7E80D0E0FBD0E0FAD0E0F8D0E06D
:1008E300CFC618CEC618CDC618CCC6F92212044CF2
:1008F30070041818182212045B700D74FFF618198F
:10090300F61819F61819F622E7548066F61204123F
:10091300700F12041B70F014F608F608F608F68040
:10092300D112041B700CF608F608768008E6447FA3
:1009330080EC12043B700C12042760BFE65480F66F
:10094300E480BB120427700519191980A5E86970A2
:100953000C763F18768018F618F6E8F922E6CDC033
:10096300E018ECC0E0E633CD33CDD313F6E719FC42
:10097300E7191933CC33C3947F400ECD9D5024081F
:10098300E65480F6E418F6800FF4043D145014087E
:10099300E6447FF6187680E418F618F6D0E0FCD02B
:1009A300E0FD22CCD313CCFD18E4C6CBC0E018E4A1
:1009B300C6CAC0E00808ED08C633E613F618E433E8
:1009C300C675F003C3CA97CA09CB97CB199C4004D9
:1009D3007D08802EBD0003020A9916B6FF050606A0
:1009E300081618C3CA33CACB33CB33CA27CA09CBB9
:1009F30037CB193CC37D08803E187D0820E75CC6D1
:100A030033C6CA33CACB33CB33DDF1D5F0EB30E792
:100A13007BCA97CA09CB974ACB199C406F4B702569
:100A2300E620E0218066187D08C3CA97CA09CB97E0
:100A3300CB199CD3C633C6CA33CACB33CB3350C9C5
:100A4300DDE7D5F0E1D3E4C636C608C636C608C628
:100A530036C608C636C61818188031C3CA97CA09DD
:100A6300CB97CB199CB34097C633C6CA33CACB3393
:100A7300CB33DD34D5F02EC6A2E0C640C8CA27CAA0
:100A830009CB37194A70BECB3CB480B90808E633AA
:100A930008E633601F181818D0E0FAD0E0FBD0E066
:100AA300FCD0E0FD22187D08CA27CA09CB37CB1931
:100AB3003CD3808013F618E4B67F11F618B6FF0E08
:100AC300F618C60470D20808768080CAF618F6189D
:100AD300F680C5E4CFC0E0E4CEC0E0E4CDC0E0E4FE
:100AE300CCC0E075F020E626F608E633F608E633D8
:100AF300F608E633F6181818EC33FCED33FDEE3345
:100B0300FEEF33FFC3EC9709ED9709EE9709EF97D3
:100B1300191919400FFFEC97FC09ED97FD09EE97A2
:100B2300FE191906D5F0BFECF709EDF709EEF70941
:100B3300EFF7191919D0E0FCD0E0FDD0E0FED0E0CA
:100B4300FF22181818E4C396F608E496F608E4960C
:100B5300F608E496F622E0F608A3E0F608A3E0F62A
:100B630008A3E0F622E6F008A3E6F008A3E6F008FF
:100B7300A3E6F022E0FAA3E0FBA3E0FCA3E0FD225E
:100B8300E0F8A3E0F9A3E0FAA3E0FB22E8F0A3E98D
:100B9300F0A3EAF0A3EBF022CAC0E0E6F0A308DA80
:100BA300FAD0E0FA22CAC0E0E0A3C582CCC582C570
:100BB30083CDC583F0A3C582CCC582C583CDC58350
:100BC300DAE6D0E0CA22C3E498F8E499F9120C0AF1
:100BD3008026C3E49AFAE49BFBE920E7E9120C0AB6
:100BE300E498F8E499F922C3E498F8E499F9120C2B
:100BF3000AE498F8E499F9C3E49AFAE49BFB22EB3C
:100C030020E7CFE920E7E0B90010BB0008E88AF04D
:100C130084F8AAF022E4FBC8FA22EB70227B10C806
:100C230033C8C933C9335007C39AC3DBF280069A6A
:100C330050012ADBEAC833F4C8C933F4C9FA227570
:100C4300F008E4C833C8C933C933C99AC99B5004EF
:100C5300C92AC93BD5F0ECFBC833F4C8E4C9FA226E
:100C6300251010AF08F510400C15118008F5104041
:100C7300021511D2AF2200C0D0251010AF08F51015
:100C8300500C05118008F51050020511D2AFD0D0D9
:100C9300222510F58210AF08F510400C15118008BD
:100CA300F51040021511D2AF851183222510F5826C
:100CB300E43511F583222510F8E43511F922E473A4
:100CC3002510C582C0E0E51134FFC583C0E0E510FF
:100CD300C3958224F810AF0885831185821080089C
:100CE300858311858210D2AFCEF0A3E520F0A378DF
:100CF30008E608F0A3DEFAEFF0A3E58124FAF8E6AC
:100D030008F0A3E608F0A3E608F0A30808E608F055
:100D1300A3E608F0A315811581D0E0FED0E0F81515
:100D23008115811581E8C0E0EEC0E022851183853D
:100D33001082E0A3FEE0A3F5207808E0A3F608DF25
:100D4300FAE0A3FFE0A3C0E0E0A3C0E0E0A3C0E0BB
:100D5300E0A3C0E0E0A3C0E010AF08858210858364
:100D6300118008858210858311D2AFD083D082028F
:100D730000EFC0D02510C582C0E0E51134FFC58364
:100D8300C0E0E510C3958224F310AF088583118575
:100D930082108008858311858210D2AFC8F0A3E941
:100DA300F0A3EAF0A3EBF0A37908E709F0A3D8FADC
:100DB300ECF0A3EDF0A3EEF0A3EFF0A3D0E0F0A3EB
:100DC300D0E0F0A3D0E0F0A3E520F0A3E5F0F0A39A
:100DD30022851183851082E0C0E0A3E0F9A3E0FA45
:100DE300A3E0FBA37808E0F608A3DFFAE0FCA3E0A6
:100DF300FDA3E0FEA3E0FFA3E0C0E0A3E0C0E0A307
:100E0300E0F5D0A3E0F520A3E0A3F5F010AF08854B
:100E130083118582108008858311858210D2AFD01B
:100E230082D083D0E0F8D0E032740480067402806C
:100E3300027401C0E0F404120C94D0E0120B9B2264
:100E430074028000CCC0E0EDC0E0E510C39CCCADE3
:100E53001150011D10AF068C108D1180068C108D62
:100E630011D2AF120BA8D0E0FDD0E0FC22EAF5F9D5
:100E7300A2EA50FCC2EA22C0E074F2120D75A2AFDE
:100E8300E433FEC2AFE5E9A2E650209002FCE0F8AD
:100E9300A3E0F9E849600E9002FCE0F8A3E0F583D3
:100EA3008882120CC1759B0053E9BFEEF8EEA2E0F5
:100EB30092AF7F01020DD474F0120CC374FD120CB7
:100EC300637402120CAFE9F08A088B098C0A8D0B4C
:100ED3007415120CAFE0FEA3E0FF85108285118329
:100EE300E4F0A3F08E828F83A3AA82AB8390048362
:100EF300780C120B597808790C12046A70118E82DF
:100F03008F8374691213A5746EF0A37466801878C6
:100F130008790812046A60188E828F83746E121324
:100F2300A57461F0A3746EF0A30A0AAB83021344A1
:100F3300900487780C120B597808790C1204965098
:100F430003020FE7900422780C120B597808790CEE
:100F530012046A600302103B7417120CAFE07003B3
:100F630002107D851082851183C082C083741312A1
:100F73000CAF121DF9D083D08212137E502F85102F
:100F830082851183C3E094FCA3E094FFA2D265D0D1
:100F930033401A7402120CAFE4121EE9F8A3E0F90D
:100FA3007413120CAFC3E098F0A3E099F07413121A
:100FB3000CAF12139B7418120CAFE0700302107A7B
:100FC3007417120CAFE402107C90048B780C120B94
:100FD300597808790C1208F0851082851183E02472
:100FE3000A121F0790048F780C120B597808790C9A
:100FF30012049640D4900493780C120B5978087914
:101003000C1204964003020F5B900493780C120BAE
:10101300597808790C1208F0121EFE80D890048BC0
:10102300780C120B597808790C12053185108285DA
:101033001183E024F612139E900497780C120B5937
:101043007808790C1204E540D4900487780C120BCD
:10105300597808790C1204E54003020F5B9004935E
:10106300780C120B597808790C120531851082859A
:10107300118312139B80D27401F07402120CAFE03F
:1010830060057A0002110A12138A507F8E828F83C1
:101093007430F0EAFEEBFF7413120CAFE0FCA3E034
:1010A300FDEC4D70087418120CAFE0600B8E828F4C
:1010B30083742EF0A30EAF837A007B0080118E829F
:1010C3008F8374301213C67413120CAF12139BEA7E
:1010D30024FF1AEB34FFFB851082851183121372F0
:1010E300500C7413120CAF121DF9E84970D085101F
:1010F3008285118374FFC39CF874FF9DF912137EDC
:10110300500302125C7A017B00807B85108285117B
:1011130083121DF9C3E498FAE499FB806985080CEE
:1011230085090D850A0E850B0F780C120383AC0C11
:10113300E50D3395E0F50EF50F780C12030B7808E7
:10114300790C1206B1900493780C120B5978087934
:101153000C120531EC1213C0EAF8EBF9E824010A8A
:10116300E439FBE849701F7413120CAF121DF9E840
:101173004970087418120CAFE0600B8E828F837471
:101183002EF0A30EAF837413120CAF121372508D93
:1011930090049B780C120B597808790C1204964032
:1011A3000302125C7C01EE24FFF8EF34FFF974159F
:1011B300120CAFE0F508A3E0F50988828983E064A7
:1011C3002E6010E02CF0643A70077430F07C0180DC
:1011D300027C00E8FAE9FBEA24FF18EB34FFF9C3C9
:1011E300E5089AE5099B40D2ECA2E0506C74021228
:1011F3000CAFE0603BEEF8EF800DEC88828983F062
:10120300E824FF18E934FFF9C3E50898E509995084
:101213001A12134EE0FC742E6C70DFE824FEF58284
:10122300E934FFF58312135BF980D5121EFE801E8D
:101233008E828F83A3AE82AF83EEF8EF8006121304
:101243004E12135BF9C3E50898E5099940F074154C
:10125300120CAF121E237431F07417120CAFE0702E
:1012630005801C1EAF83EE24FFF582EF34FFF58368
:10127300E0F874306860EC742E6870031EAF8374FA
:1012830002120CAFE070030213401213C2A3A9832E
:1012930012138A8E828F835014742DF00EE9FF850A
:1012A3001082851183121E3B1213B38006742BF038
:1012B3000EE9FF7C007D00EE240AFE50010F0CECCA
:1012C30070010D121364120C02EA1213C01213649C
:1012D300120C02851082851183E8F0A3E9121EE93E
:1012E3004970DBC3EC9402ED121DB840D1ECFAED6A
:1012F300FBC3E49CF8E49DF9EE28F582EF39F5830E
:10130300E0C0E0C3E49AF8E49BF9EE28F8EF39F97A
:10131300E82CF8E93DF9E824F5F582E934FFF58393
:10132300D0E0F0EC24FF1CED34FFFDC3EC9401EDA1
:10133300121DB850BCEE24F6FEEF34FFFFEEFAEFB9
:10134300FB7403120C797F08020D2FE824FFFAE9DE
:1013530034FFFB8A828B8322E088828983F018EB37
:1013630022851082851183121E817A0A7B0022C393
:10137300E09AA3E09BA2D265D03322C3E098A3E016
:1013830099A2D265D03322851082851183C3A3E04D
:101393009400A2D265D03322E024FFF0A3E034FF0F
:1013A300F022F0EAFEEBFF8E828F8322A3E034006B
:1013B300F9851082851183E8F0A3E9F02224308EA9
:1013C300828F83F0A3AE82AF832274F0120CC374B6
:1013D300AE120C63851082851183121EB774171227
:1013E3000CAFECF0A3EDF0740F120CAFE4F0A3809C
:1013F3001B7462120CAF121DE97417120CAF121E8C
:1014030023120CC1740F120CAF121DC0F0121E5D1B
:10141300F9851082851183E02401FAA3E03400FBEF
:10142300851082851183121EB77425696010E970D7
:10143300C0740F120CAF121DE97452021346121E30
:101443005D64257019851082851183E024010812DB
:1014530013AF7462120CAF121DE97925809B740ED1
:10146300120CAFE4F0740D120CAFE4F0740C120C18
:10147300AFE4F07405120CAFE4F07420120CB974ED
:1014830002120CAF1213BA741E120CAF744EF0A3F7
:10149300740480197405120CAFE070077405120C04
:1014A300AFEAF0851082851183E8F0A3E9121EE903
:1014B300121DAD121E52FA24E060D924FD601724D8
:1014C300F860D924FE600624FD600F8011740C12AD
:1014D3000CAFE00480CC740D80F5740E80F1121E05
:1014E30052642A705C7464120CAF121E58FAA3E0A3
:1014F300FB8A828B83E0FCA3E0FD740A120CAFEC41
:10150300F0A3EDF0EA2402FA50010B7464120CAF5D
:10151300121EAF740A120CAF121390501F740A12EA
:101523000CAF121DE9C3E49AFAE49BFB740A120C94
:10153300AF121EB7740C120CAFE004F01213B48098
:1015430043740A120CAFE4F0A3802D740A120CAF9B
:10155300121DE9EA75F00AA4FAA9F075F00AEBA4E2
:1015630029FBEA28F8E43BF9E824D0F8E934FFF949
:10157300740A120CAF121F0E121EF6F874D028C391
:10158300940A40C7740C120CAFE06007740E120C7F
:10159300AFE4F0121E5D642E70798510828511838D
:1015A300E0240108121E0DE8F0A3E9121EF6642AD6
:1015B30070267464120CAF121E7688828983E0FE53
:1015C300A3E0FFE82402F85001097464120CAF127F
:1015D3001E45121F0EF0803F7E007F00121E6A74AC
:1015E300D028C3940A5030EE75F00AA4FEA9F07512
:1015F300F00AEFA429FFEE28F8E43FF9E824D0FE2F
:10160300E934FFFF851082851183E02401F812136A
:10161300AF80C97EFF7FFF7A00851082851183E04A
:101623002401F8121E0DE0FBA3E0F5838B82E02476
:10163300B4600824E4600624FC70057A011213B434
:10164300121E6A851082851183E02401FCA3E03415
:1016530000FD851082851183ECF0A3EDF074041274
:101663000CAFE8F07003021C5424BB7003021B1D73
:1016730024FE7003021AFF24EF700302184E24F5B0
:1016830070030217441470030218F9147003021B49
:101693001D147003021B1B147003021AFF24FE7037
:1016A300030218F924FB6024147003021832147027
:1016B3000302184E24FD700302177B24FE700302FD
:1016C300184E24FD7003021842021C607464120C4D
:1016D300AF121E9D120CAF121EC5120CAF121E7656
:1016E300E8FCE9FD7406120CAFE02402F508A3E060
:1016F3003400F509EAA2E0740F502F120CAF121D4B
:10170300F93395E0FA8C828D83E8FCE9FDEAFEEC7F
:10171300F0A3EDF0A3EEF0A3F07464120CAF121E6D
:1017230023E508F0A3E50902140F120CAF121DF90B
:101733008C828D831213BA7464120CAF121E45800F
:10174300E07464120CAF121E70121E65C0E07420A8
:10175300120CAFD0E0F07464120CAF121E23121EF1
:1017630087120CAF121E451213BA7421120CAFA8C4
:1017730082A98374110218287464120CAF121E9D7F
:10178300120CAF121EC5120CAF121E9D120CAFE04D
:101793002402FAA3E03400FB7464120CAF121EAFF0
:1017A3007402120CAF1213BAE849700C7402120CD3
:1017B300AF745FF0A37404F0121DB650047E107F63
:1017C300277408120CAFE4F0A380087408120CAF5E
:1017D300121DC0F07402120CAF121DF988828983A6
:1017E300A3AA82AB837402120CAF121EB78882893C
:1017F30083E0600A7408120CAF121DFD40CD740221
:10180300120CAF121DD77411120CAF1213BA740855
:10181300120CAF121E3BF97411120CAFE028F8A39F
:10182300E039F97402120CAFE8F0A3E9021C7774F3
:101833000D120CAFE06008EE4F70047E017F007460
:101843001E120CAF746EF0A37404F07464120CAF28
:10185300121E9D120CAF1213BA7404120CAFE06483
:101863007070327406120CAF121E93120CAF121E5C
:10187300CD120CAF121E87120CAF121E451213BAF3
:10188300741A120CAF7410121ED7A3F07405120C45
:10189300AFE4021985EAA2E07406501B120CAF12E2
:1018A3001E23120B837413120CAF120B8F740612C8
:1018B3000CAFE024048012120CAF121E93120CAF73
:1018C300121ECD120CAFE02402121E8A120CAF12AC
:1018D3001E451213BA7404120CAFE0646F700974DE
:1018E3001A120CAF7408809FE064757093741A1217
:1018F3000CAF740A80917464120CAF121E9D120C0B
:10190300AF1213BAEAA2E074065015120CAF121EFE
:10191300237808120B597406120CAFE02404801BC1
:10192300120CAF121E63F508A3E0F5093395E0F539
:101933000AF50B7406120CAFE02402121E8A120C75
:10194300AF121EDE120CAF7808120B6890042278D7
:10195300081202E540217405120CAF742DF07413C4
:10196300120CAF7808120B597808120B4874131233
:101973000CAF7808120B68741A120CAF740A121E9B
:10198300D7A3F07451120CAFA882A9837402120C6E
:10199300AF1213BA7411120CAF121EE1120CAF1274
:1019A3000B83E8494A4B600A7419120CAF7401F0B7
:1019B300800E7419120CAFE4F0EE4F7003021A6F2D
:1019C3007402120CAF121E1D120CAF121EE1120C88
:1019D300AF780C120B59741A120CAF7808120B590A
:1019E300780C7908120AD6741E120CAFE02508F899
:1019F300A3E035098882F583E0C0E07402120CAFDE
:101A0300121E23D0E0F07413120CAF780C120B5992
:101A1300741A120CAF7808120B59780C7908120A51
:101A2300D67413120CAF780C120B687413120CAF2C
:101A3300120B83E8494A4B7087121DB6502E740E61
:101A4300120CAFE060267405120CAFE06004D2F014
:101A53008002C2F0740A120CAF121DC9800E740208
:101A6300120CAF121EBD120CAF121E347402120CF4
:101A7300AF121DD77451120CAFC082C0837402120F
:101A83000CAF121DE9D083D082E582C39AFAE583B5
:101A93009BFBC3EA9EEB121E0640C3740D120CAFF0
:101AA300E07003021C787419120CAFE0A2E040034B
:101AB300021C787404120CAFE064786005E064588B
:101AC3007010E088828983F0E824FF18E934FFF975
:101AD3008017E0646F6003021C787402120CAF126B
:101AE3001E5864307003021C787402120CAF121E6D
:101AF300BD120CAF121E237430021C777408120C33
:101B0300AF7401F0A3E4F07404120CAFE024FEF010
:101B1300EE4F700F7E018012E4F07408120CAFE4F4
:101B2300F0A3F0121DB650047E067F007464120CFD
:101B3300AF121E9D120CAF121EC5120CAF121E2344
:101B4300780C120B597406120CAFE02404121E8A8F
:101B5300120CAF121EDE120CAF780C120B6890043D
:101B6300227808120B59780C79081204E550227474
:101B730005120CAF742DF07413120CAF7808120B0E
:101B830059E50BB2E7F50B7413120CAF7808120B7F
:101B930068740A120CAF7420120CB98909E028F892
:101BA300A3E03509F97402120CAF1213BA740D12C3
:101BB3000CAFE0F5087808120E347409120CAFE08C
:101BC300F5087808120E347404120CAF120E438E0B
:101BD300088F097808120E30740A120CAFE0F974FA
:101BE30019120CAF120B771202BB7406120C797424
:101BF30011120CAF121EB7740E120CAFE0607674A4
:101C030005120CAFE06004D2F08002C2F0740A1235
:101C13000CAF121DC97411120CAFC082C0837402C1
:101C2300120CAF121DF9D083D082E0C398F8A3E061
:101C330099F9C3E89EE9121E06503A7402120CAFDA
:101C4300121E1D120CAF121EBD120CAF121E3480D9
:101C5300C4851082851183121DE01213B37402121E
:101C63000CAF747FF0A37404F07411120CAF748280
:101C7300F0A37404F07411120CAFC082C083740219
:101C8300120CAF121DF9D083D082E0C398FEA3E0FB
:101C930099FF740A120CAF121DFD500A7408120C3E
:101CA300AFE4F0A380307405120CAFE06004D2F00F
:101CB3008002C2F0740A120CAFE0C39EFAA3E09F45
:101CC300FBA2F0E433F8EA98F8EB9400F9740812F5
:101CD3000CAFE8F0A3E9F0740C120CAFE0702B80AA
:101CE300197462120CAF121DEF120CAF121E2312E5
:101CF3000CC1740F120CAF121F047408120CAF1234
:101D03001EA3120CAF12139050D77405120CAFE040
:101D130060517462120CAF121DE97405120CAFE02E
:101D2300F97417120CAF121E23120CC1802D7462AA
:101D3300120CAF121DE97402120CAF121E63F97478
:101D430017120CAF121E23120CC17402120CAFE057
:101D5300121DAD7402120CAF1213BA740F120CAF32
:101D6300121F04EE24FF1EEF34FFFFC3121DB850F1
:101D7300BD740C120CAFE070030214107408120C43
:101D8300AF121EA3120CAF1213905003021410745F
:101D930062120CAF121DEF120CAF121E23120CC1F4
:101DA300740F120CAF121F0480D22401F8A3E03485
:101DB30000F922C3EF9400A2D265D03322E02401BC
:101DC300F0A3E0340022A2F0E433F8E098FEA3E0AD
:101DD3009400FF22121DDB22121DE0F922E024FFF2
:101DE300F8A3E034FF22E0FAA3E0FB22E0FAA3E049
:101DF300FB7920741722121E8122C3E09EA3E012F6
:101E03001E06229FA2D265D03322121E1122A3E006
:101E13003400F985108285118322121DDB7402229E
:101E2300121E2722121E2B22E0F8A3E0F5838882DC
:101E330022121E277430F022121E81C3E498F8E4A4
:101E43009922121E4922E0FAA3E0F5838A822285B1
:101E53001082851183121E49E02285108285118329
:101E6300E0F8121E2DE022851082851183121E27B1
:101E7300E0F822121E7A22121E2B121E8122E0F893
:101E8300A3E0F922E02402F8A3E03400F974642209
:101E9300121E7AE8FAE9FB741322121E7A740622E0
:101EA300E024FFF0A3E034FFF0740822E0FCA3E099
:101EB300F5838C82EAF0A3EBF022E8F0A3E9F07457
:101EC3000222E8F0A3E9F0740622EAF0A3EB121E63
:101ED300D7740622F0A3E4F0A3F022121E49E8F01F
:101EE300A3E9F0741322121EED22F08510828511EE
:101EF30083E022121EED121E2CE022851082851132
:101F030083E02401F0A3E03400F022E8F0A3E91217
:101F13001EED2401F8121E11E8F0A3E92274F71252
:101F23000CC3E9FEEAF8EBF9E8FAE9FB740B2EC0FF
:101F3300E08A828B83D0E0F0900207E0F8A3E0F51B
:101F4300838882A3A3A3A3A3E06006786179888032
:101F53000478417988E8C0E08A828B83A3D0E0F0DB
:101F6300E4C9F8E8C0E08A828B83A3A3D0E0F090B1
:101F73000200E0C0E08A828B83A3A3A3D0E0F090A9
:101F83000207E0F8A3E0F5838882A3A3E0F8A3E0C7
:101F9300F98A828B83A3A3A3A3E8F0A3E9F08A823F
:101FA3008B83A3A3A3A3A3A3ECF0A3EDF090020759
:101FB300E0F8A3E0F5838882E0F8A3E0F98A828B56
:101FC30083A3A3A3A3A3A3A3A3E8F0A3E9F0790A9C
:101FD3007F01020D2F74F7120CC3ECFEEDFF89088D
:101FE300A908EAFCEBFD7A097B021201A1E9FD7C59
:101FF30000802BECF87900EE28F582EF39F583E0C9
:10200300C0E0EDFA7B00ECF87900EA28F8EB39F947
:10201300740928F582740239F583D0E0F00CECC31F
:10202300950840CFED2508F97F01020D2F74F712B3
:102033000CC37E7C7F0212025B1202017901EEFA6D
:10204300EFFB1202438E828F83E0C2E7F08E828F12
:1020530083E0640570528E828F83E0F97A7D7B0280
:102063001202438E828F83A3E0A2E55004D2F08054
:1020730002C2F0A2F0E43390040DF0788079028874
:10208300828983A3E0A2E740030221528E828F83D9
:10209300A3A3A3E0F8900200E0686003022152903A
:1020A30002017401F00221528E828F83E024F590A5
:1020B300040AF08E828F83E0F97A7D7B0212024359
:1020C3008E828F83A3E0A2E55004D2F08002C2F097
:1020D300A2F0E43390040DF08E828F83A3A3A3A315
:1020E300A3A3A3A3E0F8A3E0F9900406E8F0A3E90F
:1020F300F090040B7486F0A37402F090040AE0F8E5
:102103003395E0F990040BE028F8A3E039F98882CD
:102113008983E090040EF088828983A3E0A2E750CC
:1021230022900405E0F88E828F83A3A3A3E0686066
:10213300128E828F83A3E054DF6441700690040FF4
:102143007401F08E828F83A3A3A3E0900405F012A1
:1021530002071202617F01020D2F74F7120CC3EA0A
:10216300FEEBFF12021FE96401700479018079120A
:102173000207900207EEF0A3EFF090040B7400F057
:10218300A37400F09002027401F07C007D007E00D5
:102193007F00900203ECF0A3EDF0A3EEF0A3EFF0C9
:1021A300900207E0F8A3E0F5838882A3A3A3A3E04A
:1021B300F912022B900207E0F8A3E0F5838882E08E
:1021C300FAA3E0FB120231900207E0F8A3E0F583E3
:1021D3008882A3A3E0FAA3E0FB1202377AAD7B0166
:1021E30012026712020179007F01020D2F74F412AB
:1021F3000CC3EAFEEBFF8C0A8D0B8909900202E007
:10220300700312024FE509C39467500585090880DE
:102213000375086785080912026D12025BA909ACF0
:102223000AAD0BEEFAEFFB1201A7E9F97A097B027B
:1022330012023D120261120249E960027E0190021C
:1022430007E0F8A3E0F5838882A3A3A3A3A3E06038
:102253001C9002017400F07A4A7B0212021390026E
:1022630001E06004740080027401FE80027E00902D
:102273000202E07003120255EE7007900200E024A0
:1022830001F0EEF97F04020D2FC082C08390040F8A
:10229300E0F9D083D0820200EF74F2120CC38A08F3
:1022A3008B09890AECFEEDFF12020790040AE0FA9B
:1022B3003395E0FBA80A7900C3EA98EB99A2D265AB
:1022C300D033500D90040AE0F50C3395E0F50D8002
:1022D30006850A0C750D00780C120E3090040BE085
:1022E300FCA3E0FDAA08AB091202C77402120C7921
:1022F300EE4F6020120225E9F890040EE0FA3395C0
:10230300E0FB7900EAC398F8EB99F98E828F83E8B2
:10231300F0A3E9F090040F7400F012020190040A94
:10232300E0FA3395E0FBA80A7900C3EA98EB99A297
:10233300D265D033500790040AE0F98002A90A7FDE
:1023430006020D2FC082C0839002027401F01202B4
:102353004FD083D0820200EFC082C0839002027408
:1023630000F0120255D083D0820200EFC082C083F6
:1023730012028B120291798012029DE979FE1202F8
:102383009DE91202977A587B021202A9D083D08268
:102393000200EF74F0120CC374FB120C63E9C0E08B
:1023A300851082851183D0E0F075080075090075EA
:1023B3000A00750B007C007D007E007F0074011213
:1023C3000CAFECF0A3EDF0A3EEF0A3EFF01202914B
:1023D300798012029DE960030225518510828511DF
:1023E30083E0F912029DE960030225517A1E7B0006
:1023F3001202A9120291798112029DE9640160EC33
:1024030079001202A3E9FF7A1E7B001202A9790068
:102413001202A3E9FE79011202A3E9120297CE5434
:10242300FCCEEFFA7B00EA75F000A4CAA8F075F0C1
:1024330001A428F875F000EBA428FBEEF87900EA74
:1024430028F508EB39F509E5093395E0F50AF50BAD
:10245300780812030B851082851183E064F360030F
:102463000224F0900412780C120B597808790C129C
:102473000531900416780C120B597808790C120860
:10248300F090041A780C120B597808790C1206D6BE
:102493007401120CAF7808120B687401120CAF7838
:1024A30008120B59C50BC2E7C50B90041E780C121A
:1024B3000B597808790C1205317808120383AA089E
:1024C300AB097401120CAF780C120B5990042278EB
:1024D30008120B59780C790812049650089002FEE2
:1024E3007400F0806D9002FE7401F0806590042604
:1024F300780C120B597808790C1205319004167870
:102503000C120B597808790C1208F090042A780CF5
:10251300120B597808790C1206D67401120CAF7895
:1025230008120B687401120CAF7808120B59C50B13
:10253300C2E7C50B90041E780C120B597808790C6E
:102543001205317808120383AA08AB0980047A00C4
:102553007B007405120C797F08020D2F800B00009D
:10256300000000000000000000EAF8EBF9E824FF97
:10257300FAE934FFFBE84970E50200EFC082C0834B
:1025830053F3BF43FD4053F37F43FD80D2867A0A62
:102593007B00120285D2877A0A7B00120285D083E0
:1025A300D0820200EFC082C083D286D2877A057BB5
:1025B30000120285C2867A057B00120285C287D08B
:1025C30083D0820200EFC082C083C286D2877A059D
:1025D3007B00120285D2867A057B00120285D083A6
:1025E300D0820200EF74F7120CC3E9FFC2877E00AA
:1025F3008020C2867A057B00120285D2877A057B0A
:1026030000120285C2877A057B00120285EFC3336D
:10261300FF0EEEC394085009EFA2E750D5D286808F
:10262300D37A027B00120285D286D2877A027B009C
:10263300120285A28650047901800BC2877A327B0D
:102643000012028579007F01020D2F74F7120CC36B
:1026530089087E00C287D2867F008016C3EE92E08F
:10266300FE7A0A7B00120285C2877A147B0012026B
:10267300850FEFC394085018D2877A1E7B0012028D
:1026830085EEC333FEA28650D3D3EE92E0FE80D113
:10269300AF08E508A2E092867A0A7B00120285D28F
:1026A300877A327B00120285C2877A327B0012025C
:1026B30085EEF97F01020D2FEAF8EBF9E824FFFA22
:1026C300E934FFFBE849600B7800E8C394C850E89D
:1026D3000880F70200EFC082C083906189E0446004
:1026E300F09061FA7409F09061B27415F09061AEE4
:1026F3007400F01202731202617900D083D0820257
:1027030000EFC082C083900411E0F9D083D082022D
:1027130000EFC082C08375F005E9A424D490618FD3
:10272300F0D083D0820200EFC082C083EA9061744C
:10273300F0E4CBFAEA906175F0D083D0820200EF27
:10274300C082C083EA906172F0E4CBFAEA906173CD
:10275300F0D083D0820200EFC082C08375E1EE75B2
:1027630091FD78008010E8FC7D00EA2CF582EB3DBA
:10277300F583E0F5D908E8C39940EBD083D0820212
:1027830000EFC082C0838015E5D9C0E08A828B83C5
:10279300D0E0F08A828B83A3AA82AB8319E970E825
:1027A300D083D0820200EF75E1E9E591A2E150FA0E
:1027B3007591FD79000200EF75E1EC75E1E302002C
:1027C300EF75E1EF75E1EC0200EFC082C083906129
:1027D300A3E0C2E6F0539AFED083D0820200EFC09A
:1027E30082C0839061A3E0D2E6F0439A01D083D004
:1027F300820200EFC082C083A2AFE433F8C2AF907D
:1028030002FCEAF0A3EBF0E8F9E8A2E092AFD08390
:10281300D0820200EFC082C083906193E0542270A3
:10282300F8D083D0820200EF0200EFC082C0839011
:1028330003017400F0A37420F09003037411F0906B
:1028430003047401F09002FF7430F0A37425F07A4E
:10285300FF7B021201B3E91201D179807C057D036C
:102863007AFF7BFF1201B9E9D083D0820200EF74B3
:10287300F0120CC3750800750900750A00750B008A
:102883009003017400F0A37420F09003037411F01B
:102893009003047401F09002FF7420F0A37425F0F8
:1028A3007AFF7B021201B3E91201CB1201BFE96087
:1028B300FA7C007D0079807A857B031201C5E9F8F3
:1028C3007900C3E89401E99400A2D265D033407E35
:1028D300900385E0643170767A017B001201F57A0A
:1028E300647B001202197A017B001201EF79F31263
:1028F300027F8A08EBF5093395E0F50AF50B7808B2
:1029030012030B90041E780C120B597808790C12E1
:1029130008F07808120E2C90044C120E437C2E7D86
:10292300047A057B031202DF7406120C797508051D
:102933007509037808120E307A497B041202D374A6
:1029430002120C797AE87B031202191202AF7F0894
:10295300020D2F12020D1201E91202791201FB126C
:10296300021FE91202B57A0A7B0012021980F4C031
:1029730082C0838A828B831229FFE9F08A828B8348
:10298300E02401FCA3E03400FD8A828B83ECF0A3F6
:10299300EDF0D083D0820200EF74F6120CC374FC06
:1029A300120C637402120CAFEAF0A3EBF0ECFAED35
:1029B300FB740E120CB9851082851183E8F0A3E92C
:1029C300F0A810A911880889097808120E30740438
:1029D300120CB9880889097808120E307CD97D0257
:1029E3001202C17404120C797402120CAF1229FF83
:1029F300E4F07404120C797F02020D2FE0F8A3E0D7
:102A0300F583888222C082C08379001201DDE960E8
:102A13001079011201D779001201DDE96003120177
:102A2300E379001201D7D083D0820200EFEBC31306
:102A3300FBEA13FAEAF8EBF9E824FFFAE934FFFBBF
:102A4300E8496013000000000000000000000000DF
:102A5300000000000080DD0200EF74F7120CC3EAEF
:102A6300FEEBFFEEF8EFF9E824FFFEE934FFFFE8A1
:102A73004960097AE87B0312021380E77F01020DA4
:102A83002F53F4F243FE0D53F5FE43FF0143900D24
:102A9300D2A00200EFEAA2E05002D290EA54026010
:102AA30003859090EA54046003859090EA5408608B
:102AB30002D2A00200EFEAA2E05002C290EA54025E
:102AC3006003859090EA54046003859090EA54086B
:102AD3006002C2A00200EF43F4C043F10253F5DFEA
:102AE30075F8C075FC0A75FA3B85FBFB0200EFE540
:102AF300C65480F853BEFBE59DA2E550FAE59DA2BE
:102B0300E240F4007401697007744948F5C6800512
:102B1300E9700288C6AAC6A89EEA6870FA43BE0492
:102B23000200EFE9FAE59EA2E640047901801AEA81
:102B3300700553C67F800874016A700343C680A979
:102B4300C6A89EE96870FA79000200EFEEC0E0E9DA
:102B5300FA7B00120E70D0E0FE0200EF74F6120C46
:102B6300C374FE120C63740C120CB98510828511A8
:102B730083E8F0A3E9F0A810A91188088909780867
:102B8300120E30E4F508F5097808120E307CCD7D7D
:102B9300021202C17404120C797402120C797F02BE
:102BA300020D2F74F6120CC3EAF8EBF9740A120C37
:102BB300AFE0FEA3E0FF80188C828D83E0888289DA
:102BC30083F0A3A882A9838C828D83A3AC82AD8377
:102BD3008E088F09E50824FF1EE50934FFFFE50889
:102BE300450970D47F02020D2FD2AF0200EFC2AFAE
:052BF3000200EF80FE6E
:04000005000000D720
:00000001FF
