:020000040000FA
:1000000002005400000080FBE49002007841790176
:100010008002F0A3D8FCD9FA7A407B029000847861
:10002000AC79018015E493A3AD82AE838A828B8381
:10003000F0A3AA82AB838D828E83D8E9D9E775823B
:100040000975831D74001200667582037583007440
:100050000012006675D0007581BF75140075150219
:10006000759F00020008C09FF59FE473D09F22D0C7
:1000700083D082C09FE493C0E0740193C0E0740217
:1000800093F59F22FFFFFFFF70706DC5A8B6C8CE25
:10009000AA3A252E326620202020B5E7D1B9D6B560
:1000A000CEAA3A252E32660D0A0000409C4600601A
:1000B0006AC7010AA03A0000000001001040E18375
:1000C0001744185D084301004040555550450080D5
:1000D000BBC50100604000803B460000FAC63031DD
:1000E00032333435363738394142434445460028A7
:1000F0006E756C6C20706F696E746572290030319A
:100100003233343536373839616263646566003FAF
:100110003F3F000000807F0000803FF9021550B78C
:1001200043BA510000204100E7DB2E0000A040123E
:10013000006FCF200012006FA71E0012006F261F55
:100140000012006F4D1F0012006F84200012006F1C
:1001500096200012006F37200012006F502000120E
:10016000006F5B200012006FA30C0012006FB6112D
:100170000012006FA11F0012006FCB1F00C008C348
:10018000E096F50808A3E096420808A3E096420826
:1001900008A3E0964208A2D265D033E5087001D3E7
:1001A000D00822080808E630E7111209DD1201BB69
:1001B000080808C64480C618181822181818E979C3
:1001C0009EC608CAC608CBC608CCC6C3702079969E
:1001D000CACBCC7019798ECBCC70137986CC700ECB
:1001E000F9802ACA33CACB33CBCC33CC331930E7AE
:1001F000F2CCCBCA3350147004EA30E00DE4CA3AB2
:10020000CACB3BCBCC3CCC500209C3E913C6CC18BB
:100210002313C6CB18C6CA18C6F92212025B20F0F7
:100220001430E72B74FFFCFBFA747F8022E4FCFBA4
:10023000FA7480801AB48008BC00F2BB00EF800F13
:1002400050EBF9E4C39AFAE49BFBE49CFCE499C606
:10025000CC18C6CB18C6CA18C6F922E4C9C608CA43
:10026000C608CBC6D3330308CCC63392F0C3947F01
:10027000402E94184019C9B90704CACBCC22502586
:10028000C309CA33CACB33CBCC33CC33D9F422F431
:10029000600DC9CCC313CB13CBCA13CAD9F6CC2279
:1002A000E4FCFBFA2214FCFBFA22E6261846184668
:1002B000184622E72719471947194722181818E640
:1002C0000846087009E626087005E633F42208227D
:1002D000191919E70947097009E727097005E73374
:1002E000F4220922E6084608C3134608336002E6F2
:1002F00033F422E7094709C3134709336002E733A0
:10030000F4221202E460251202F360201202AA70A5
:10031000030202B3080808E76670101819E7667050
:100320000A1819E76670041819E76622F422120207
:10033000E4601C1202F360171202AA70071202B3E3
:100340007001D322C0D01202B37006D0D0B322C342
:100350002233D0D0501430E0F6C3E7960809E79670
:100360000809E7960809E796B32220E0D5E6970842
:1003700009E6970809E6970809E697B3221202E40E
:10038000601B1202F360161202AA70071202B36019
:100390000CB322C0D01202B37005D0D022C32233D6
:1003A000D0D0501330E0EBC3E7960809E796080970
:1003B000E7960809E7962220E0E4E6970809E69721
:1003C0000809E6970809E69722001202E4604F1236
:1003D00002F36012E7548066F61202BC701112023A
:1003E000B3703B090909F4F618F618F618F622124C
:1003F00002D070151202AA08080860EAE6447FF6E7
:1004000018768018E4F618F6221202AA6016120274
:10041000B37012E4F608F608F608E65480F6090907
:100420000918181822EAC0E0EBC0E0ECC0E0EDC00B
:10043000E0E687F0A4FBACF008E687F0A42CFCE42F
:1004400035F0FA1809E687F0A42C4B60027401CA53
:1004500035F0FCE433FB09E687F0D2F7A42CCB356A
:10046000F0FC1908E687F0A42BCC35F0FBE433FD53
:100470000819E687F0D2E7A42C4ACB35F0CD34003A
:10048000FC09E687F0D2E7A42DCC35F0FDE433FA81
:100490000918E687F0D2F7A42CCD35F0CA3400FC59
:1004A00008E687F0D2E7D2F7A42ACC35F07A7E208E
:1004B000E70B0ACB33CBCD33CDCC33CC33CB33505E
:1004C000147004ED30E00ED2F1E4CD3DCDCC3CCC47
:1004D0003B5005DA05C2F1EB547FC63308E6339290
:1004E000F0FBE73309E733C39A502D2B70190C0D3D
:1004F0004C4D70151806E608C333700D20F10AA2A2
:10050000F013F6E418800B4024E4F630F002768015
:1005100018F618F618F68024D33B14501074FFA276
:10052000F013F6187680E418F618F6800FA2F01390
:10053000F618E63303F618ECF618EDF6D0E0FDD029
:10054000E0FCD0E0FBD0E0FA221202F36046120297
:10055000E4603DE9687008F618F618F618F622749B
:100560008067F712057D090909748067F722120276
:10057000E4601D1202F37005191919801A1202BCE9
:10058000701F1202D0C37003E667331919194007B0
:100590001818182208080874FFF618F618F618F646
:1005A000221202D060171202B3702192F01202AA36
:1005B0007019501720F014080808090909E7F618FF
:1005C00019E7F61819E7F61819E7F6221202AA60D9
:1005D000E6E869701F0808E62480F608E436F61895
:1005E000547FB47F0CE654806007F6E418F618F6E2
:1005F00022181822E9C6CC08C6CD08C6CE08C6CF38
:10060000C0E0E8C0E0EAC0E0EBC0E009E9F809E7D3
:10061000FA09E7FBE6F918E6F8C3EC98ED99EE9ACB
:10062000EBC2E7F5F0EFC2E795F0500E600CEBCFB0
:10063000FBEACEFAE9CDF9E8CCF8EAA2E7D2E7FA8C
:10064000EB33FB13F5F0EEA2E7D2E7FEEF33FFC585
:10065000F013A2E730E601B313C5F0C3C0E0C0F069
:100660007F00C39BFB605E9418600F401D14601AEE
:10067000D0E023F9D0E0F802074F8AF0E9486003A0
:10068000D2F0E4AFF0FAF9F8803BEB30E40D89F0FA
:10069000EA6003D2F0E4AFF0F9CAF8EB30E30D887A
:1006A000F0EF6002D2F0AFF0E4CAC9F8EB54076093
:1006B00014FBC3EA13FAE913F9E813F8EF13500235
:1006C000D2E0FFDBEDD0E0C0E030E739C3E49FFFCC
:1006D000F5F0EC98FC42F0ED99FD42F0EE9AFE4206
:1006E000F0D0E0F9D0E0F8E5F0607AE923F9EE2007
:1006F000E742D8028067C3EF33FFEC33FCED33FDF4
:10070000EE33FE80EAEC28FCED39FDEE3AFED0E057
:1007100023F9D0E0F84002801BC3EE13FEED13FD79
:10072000EC13FCEF135002D2E0FF08B800067F7F05
:1007300074FF802EEF3350178CF020F00260100C05
:10074000BC000C0DBD00080EBE000408E860DFE927
:1007500033E813FFEE2313FE4F4D4C8008E954801D
:10076000FFE4FEFDFCEE33EF33F47004FCFD7E800D
:10077000D0E0FBD0E0FAD0E0F8D0E0CFC618CEC68B
:1007800018CDC618CCC6F9221202E4700418181845
:10079000221202F3700D74FFF61819F61819F618E4
:1007A00019F622E7548066F61202AA700F1202B3FD
:1007B00070F014F608F608F608F680D11202B3704D
:1007C0000CF608F608768008E6447F80EC1202D327
:1007D000700C1202BF60BFE65480F6E480BB1202C8
:1007E000BF700519191980A5E869700C763F187655
:1007F0008018F618F6E8F922E6CDC0E018ECC0E063
:10080000E633CD33CDD313F6E719FCE7191933CC12
:1008100033C3947F400ECD9D502408E65480F6E407
:1008200018F6800FF4043D14501408E6447FF618BF
:100830007680E418F618F6D0E0FCD0E0FD22CCD3A8
:1008400013CCFD18E4C6CBC0E018E4C6CAC0E0086B
:1008500008ED08C633E613F618E433C675F003C393
:10086000CA97CA09CB97CB199C40047D08802EBD3E
:10087000000302093116B6FF050606081618C3CA9A
:1008800033CACB33CB33CA27CA09CB37CB193CC3C6
:100890007D08803E187D0820E75CC633C6CA33CA8F
:1008A000CB33CB33DDF1D5F0EB30E77BCA97CA0908
:1008B000CB974ACB199C406F4B7025E620E02180F6
:1008C00066187D08C3CA97CA09CB97CB199CD3C6B3
:1008D00033C6CA33CACB33CB3350C9DDE7D5F0E1D9
:1008E000D3E4C636C608C636C608C636C608C636F7
:1008F000C61818188031C3CA97CA09CB97CB199C60
:10090000B34097C633C6CA33CACB33CB33DD34D5F5
:10091000F02EC6A2E0C640C8CA27CA09CB37194A7A
:1009200070BECB3CB480B90808E63308E633601FDC
:10093000181818D0E0FAD0E0FBD0E0FCD0E0FD229F
:10094000187D08CA27CA09CB37CB193CD38080133E
:10095000F618E4B67F11F618B6FF0EF618C6047046
:10096000D20808768080CAF618F618F680C5E4CF5B
:10097000C0E0E4CEC0E0E4CDC0E0E4CCC0E075F07F
:1009800020E626F608E633F608E633F608E633F600
:10099000181818EC33FCED33FDEE33FEEF33FFC3D4
:1009A000EC9709ED9709EE9709EF97191919400F80
:1009B000FFEC97FC09ED97FD09EE97FE191906D596
:1009C000F0BFECF709EDF709EEF709EFF719191980
:1009D000D0E0FCD0E0FDD0E0FED0E0FF22181818F7
:1009E000E4C396F608E496F608E496F608E496F66C
:1009F000226016080808C6C313C618C613C618C650
:100A000013C618C613C6D5E0EA22E627F60809E69B
:100A100037F60809E637F60809E637F622E026F643
:100A200008A3E036F608A3E036F608A3E036F6227F
:100A3000E0F608A3E0F608A3E0F608A3E0F622E655
:100A4000F008A3E6F008A3E6F008A3E6F022E0FA37
:100A5000A3E0FBA3E0FCA3E0FD22E0F8A3E0F9A300
:100A6000E0FAA3E0FB22E8F0A3E9F0A3EAF0A3EBAD
:100A7000F022CAC0E0E6F0A308DAFAD0E0FA22CA0F
:100A8000C0E0E0A3C582CCC582C583CDC583F0A3F9
:100A9000C582CCC582C583CDC583DAE6D0E0CA2243
:100AA000C3E498F8E499F9120AE18026C3E49AFABB
:100AB000E49BFBE920E7E9120AE1E498F8E499F9FC
:100AC00022C3E498F8E499F9120AE1E498F8E49969
:100AD000F9C3E49AFAE49BFB22EB20E7CFE920E795
:100AE000E0B90010BB0008E88AF084F8AAF022E41C
:100AF000FBC8FA22EB70227B10C833C8C933C93354
:100B00005007C39AC3DBF280069A50012ADBEAC879
:100B100033F4C8C933F4C9FA2275F008E4C833C8FD
:100B2000C933C933C99AC99B5004C92AC93BD5F0F6
:100B3000ECFBC833F4C8E4C9FA22700422600D1833
:100B4000C6C333C608C633C6D5E0F4182225141030
:100B5000AF08F514400C15158008F5144002151562
:100B6000D2AF2200C0D0251410AF08F514500C05E8
:100B7000158008F51450020515D2AFD0D0222514E7
:100B8000F58210AF08F514400C15158008F51440D7
:100B9000021515D2AF851583222514F582E435158B
:100BA000F583222514F8E43515F922E4732514C5DC
:100BB00082C0E0E51534FFC583C0E0E514C395822B
:100BC00024F810AF08858315858214800885831565
:100BD000858214D2AFCEF0A3E520F0A37808E60812
:100BE000F0A3DEFAEFF0A3E58124FAF8E608F0A31B
:100BF000E608F0A3E608F0A30808E608F0A3E60874
:100C0000F0A315811581D0E0FED0E0F815811581A3
:100C10001581E8C0E0EEC0E022851583851482E0EE
:100C2000A3FEE0A3F5207808E0A3F608DFFAE0A32E
:100C3000FFE0A3C0E0E0A3C0E0E0A3C0E0E0A3C009
:100C4000E0E0A3C0E010AF0885821485831580081A
:100C5000858214858315D2AFD083D08202006C7454
:100C6000048006740280027401C0E0F404120B7E5A
:100C7000D0E0120A722274028000CCC0E0EDC0E025
:100C8000E514C39CCCAD1550011D10AF068C148D1E
:100C90001580068C148D15D2AF120A7FD0E0FDD0DE
:100CA000E0FC2274F0120BAD74FD120B4D740212B5
:100CB0000B99E9F08A088B098C0A8D0B7415120BBD
:100CC00099E0FEA3E0FF851482851583E4F0A3F08C
:100CD0008E828F83A3AA82AB839002CF780C120AF4
:100CE000307808790C12030270118E828F83746938
:100CF00012118E746EF0A374668018780879081249
:100D0000030260188E828F83746E12118E7461F0EC
:100D1000A3746EF0A30A0AAB8302112D9002D3785C
:100D20000C120A307808790C12032E5003020DD0F1
:100D3000900272780C120A307808790C1203026063
:100D400003020E247417120B99E07003020E6685DD
:100D50001482851583C082C0837413120B99121BF1
:100D6000E2D083D082121167502F851482851583BB
:100D7000C3E094FCA3E094FFA2D265D033401A7480
:100D800002120B99E4121CD2F8A3E0F97413120BAF
:100D900099C3E098F0A3E099F07413120B99121123
:100DA000847418120B99E07003020E637417120B0F
:100DB00099E4020E659002D7780C120A307808790F
:100DC0000C120788851482851583E0240A121CF012
:100DD0009002DB780C120A307808790C12032E404E
:100DE000D49002DF780C120A307808790C12032EA6
:100DF0004003020D449002DF780C120A3078087923
:100E00000C120788121CE780D89002D7780C120ABF
:100E1000307808790C1203C9851482851583E02483
:100E2000F61211879002E3780C120A307808790CD8
:100E300012037D40D49002D3780C120A30780879DE
:100E40000C12037D4003020D449002DF780C120A5D
:100E5000307808790C1203C9851482851583121124
:100E60008480D27401F07402120B99E060057A005C
:100E7000020EF3121173507F8E828F837430F0EA6A
:100E8000FEEBFF7413120B99E0FCA3E0FDEC4D7038
:100E9000087418120B99E0600B8E828F83742EF009
:100EA000A30EAF837A007B0080118E828F83743013
:100EB0001211AF7413120B99121184EA24FF1AEB6A
:100EC00034FFFB85148285158312115B500C74135B
:100ED000120B99121BE2E84970D0851482851583A4
:100EE00074FFC39CF874FF9DF91211675003021040
:100EF000457A017B00807B851482851583121BE275
:100F0000C3E498FAE499FB806985080C85090D858E
:100F10000A0E850B0F780C12021BAC0CE50D3395F5
:100F2000E0F50EF50F780C1201A37808790C120584
:100F3000499002DF780C120A307808790C1203C944
:100F4000EC1211A9EAF8EBF9E824010AE439FBE80C
:100F500049701F7413120B99121BE2E84970087450
:100F600018120B99E0600B8E828F83742EF0A30E03
:100F7000AF837413120B9912115B508D9002E778B6
:100F80000C120A307808790C12032E400302104527
:100F90007C01EE24FFF8EF34FFF97415120B99E091
:100FA000F508A3E0F50988828983E0642E6010E0EB
:100FB0002CF0643A70077430F07C0180027C00E809
:100FC000FAE9FBEA24FF18EB34FFF9C3E5089AE5D8
:100FD000099B40D2ECA2E0506C7402120B99E060C5
:100FE0003BEEF8EF800DEC88828983F0E824FF184F
:100FF000E934FFF9C3E50898E50999501A12113749
:10100000E0FC742E6C70DFE824FEF582E934FFF515
:1010100083121144F980D5121CE7801E8E828F83C3
:10102000A3AE82AF83EEF8EF80061211371211449F
:10103000F9C3E50898E5099940F07415120B991267
:101040001C0C7431F07417120B99E07005801C1E93
:10105000AF83EE24FFF582EF34FFF583E0F87430C0
:101060006860EC742E6870031EAF837402120B99D3
:10107000E070030211291211ABA3A9831211738E20
:10108000828F835014742DF00EE9FF85148285152C
:1010900083121C2412119C8006742BF00EE9FF7C35
:1010A000007D00EE240AFE50010F0CEC70010D12C1
:1010B000114D120AD9EA1211A912114D120AD9853D
:1010C0001482851583E8F0A3E9121CD24970DBC3B2
:1010D000EC9402ED121BA140D1ECFAEDFBC3E49CB1
:1010E000F8E49DF9EE28F582EF39F583E0C0E0C31E
:1010F000E49AF8E49BF9EE28F8EF39F9E82CF8E9DE
:101100003DF9E824F5F582E934FFF583D0E0F0EC11
:1011100024FF1CED34FFFDC3EC9401ED121BA15024
:10112000BCEE24F6FEEF34FFFFEEFAEFFB74031281
:101130000B637F08020C19E824FFFAE934FFFB8AED
:10114000828B8322E088828983F018EB22851482C7
:10115000851583121C6A7A0A7B0022C3E09AA3E0F9
:101160009BA2D265D03322C3E098A3E099A2D265B6
:10117000D03322851482851583C3A3E09400A2D2C4
:1011800065D03322E024FFF0A3E034FFF022F0EA40
:10119000FEEBFF8E828F8322A3E03400F985148258
:1011A000851583E8F0A3E9F02224308E828F83F046
:1011B000A3AE82AF832274F0120BAD74AE120B4D4E
:1011C000851482851583121CA07417120B99ECF0FC
:1011D000A3EDF0740F120B99E4F0A3801B7462125C
:1011E0000B99121BD27417120B99121C0C120BAB19
:1011F000740F120B99121BA9F0121C46F985148268
:10120000851583E02401FAA3E03400FB8514828570
:101210001583121CA07425696010E970C0740F1248
:101220000B99121BD2745202112F121C46642570A6
:1012300019851482851583E02401081211987462BF
:10124000120B99121BD27925809B740E120B99E414
:10125000F0740D120B99E4F0740C120B99E4F07415
:1012600005120B99E4F07420120BA37402120B996F
:101270001211A3741E120B99749AF0A374028019B0
:101280007405120B99E070077405120B99EAF0854A
:101290001482851583E8F0A3E9121CD2121B961262
:1012A0001C3BFA24E060D924FD601724F860D9249F
:1012B000FE600624FD600F8011740C120B99E0048F
:1012C00080CC740D80F5740E80F1121C3B642A7082
:1012D0005C7464120B99121C41FAA3E0FB8A828BA6
:1012E00083E0FCA3E0FD740A120B99ECF0A3EDF08F
:1012F000EA2402FA50010B7464120B99121C9874C0
:101300000A120B99121179501F740A120B99121BB1
:10131000D2C3E49AFAE49BFB740A120B99121CA044
:10132000740C120B99E004F012119D8043740A12A0
:101330000B99E4F0A3802D740A120B99121BD2EAC8
:1013400075F00AA4FAA9F075F00AEBA429FBEA28C3
:10135000F8E43BF9E824D0F8E934FFF9740A120BF9
:1013600099121CF7121CDFF874D028C3940A40C7E6
:10137000740C120B99E06007740E120B99E4F012D2
:101380001C46642E7079851482851583E02401083B
:10139000121BF6E8F0A3E9121CDF642A70267464BD
:1013A000120B99121C5F88828983E0FEA3E0FFE89C
:1013B0002402F85001097464120B99121C2E121C9D
:1013C000F7F0803F7E007F00121C5374D028C39436
:1013D0000A5030EE75F00AA4FEA9F075F00AEFA4E9
:1013E00029FFEE28F8E43FF9E824D0FEE934FFFFB6
:1013F000851482851583E02401F812119880C97E36
:10140000FF7FFF7A00851482851583E02401F8129E
:101410001BF6E0FBA3E0F5838B82E024B460082494
:10142000E4600624FC70057A0112119D121C53859C
:101430001482851583E02401FCA3E03400FD8514AB
:1014400082851583ECF0A3EDF07404120B99E8F09B
:101450007003021A3D24BB700302190624FE7003B8
:101460000218E824EF700302163724F57003021502
:101470002D1470030216E21470030219061470038F
:101480000219041470030218E824FE70030216E225
:1014900024FB602414700302161B14700302163719
:1014A00024FD700302156424FE700302163724FD28
:1014B000700302162B021A497464120B99121C86CF
:1014C000120B99121CAE120B99121C5FE8FCE9FD7D
:1014D0007406120B99E02402F508A3E03400F50924
:1014E000EAA2E0740F502F120B99121BE23395E021
:1014F000FA8C828D83E8FCE9FDEAFEECF0A3EDF0C6
:10150000A3EEF0A3F07464120B99121C0CE508F022
:10151000A3E5090211F8120B99121BE28C828D834C
:101520001211A37464120B99121C2E80E0746412C1
:101530000B99121C59121C4EC0E07420120B99D04A
:10154000E0F07464120B99121C0C121C70120B99AF
:10155000121C2E1211A37421120B99A882A9837454
:10156000110216117464120B99121C86120B991237
:101570001CAE120B99121C86120B99E02402FAA3DE
:10158000E03400FB7464120B99121C987402120B65
:10159000991211A3E849700C7402120B9974ABF004
:1015A000A37402F0121B9F50047E107F2774081250
:1015B0000B99E4F0A380087408120B99121BA9F090
:1015C0007402120B99121BE288828983A3AA82AB50
:1015D000837402120B99121CA088828983E0600A2E
:1015E0007408120B99121BE640CD7402120B99126B
:1015F0001BC07411120B991211A37408120B9912CB
:101600001C24F97411120B99E028F8A3E039F9743D
:1016100002120B99E8F0A3E9021A60740D120B99FB
:10162000E06008EE4F70047E017F00741E120B997B
:1016300074BAF0A37402F07464120B99121C86122F
:101640000B991211A37404120B99E0647070327438
:1016500006120B99121C7C120B99121CB6120B99D4
:10166000121C70120B99121C2E1211A3741A120B59
:10167000997410121CC0A3F07405120B99E40217A0
:101680006EEAA2E07406501B120B99121C0C120A8F
:101690005A7413120B99120A667406120B99E024FD
:1016A000048012120B99121C7C120B99121CB61298
:1016B0000B99E02402121C73120B99121C2E1211AA
:1016C000A37404120B99E0646F7009741A120B99D9
:1016D0007408809FE064757093741A120B99740AF1
:1016E00080917464120B99121C86120B991211A32B
:1016F000EAA2E074065015120B99121C0C7808121D
:101700000A307406120B99E02404801B120B991204
:101710001C4CF508A3E0F5093395E0F50AF50B74C8
:1017200006120B99E02402121C73120B99121CC7AB
:10173000120B997808120A3F900272780812017D04
:1017400040217405120B99742DF07413120B9978C3
:1017500008120A3078081209E07413120B997808FD
:10176000120A3F741A120B99740A121CC0A3F07467
:1017700051120B99A882A9837402120B991211A31A
:101780007411120B99121CCA120B99120A5AE849C9
:101790004A4B600A7419120B997401F0800E741987
:1017A000120B99E4F0EE4F70030218587402120BFA
:1017B00099121C06120B99121CCA120B99780C1262
:1017C0000A30741A120B997808120A30780C7908CA
:1017D00012096E741E120B99E02508F8A3E0350972
:1017E0008882F583E0C0E07402120B99121C0CD0C1
:1017F000E0F07413120B99780C120A30741A120B61
:10180000997808120A30780C790812096E7413124C
:101810000B99780C120A3F7413120B99120A5AE8AA
:10182000494A4B7087121B9F502E740E120B99E081
:1018300060267405120B99E06004D2F08002C2F0B9
:10184000740A120B99121BB2800E7402120B9912B9
:101850001CA6120B99121C1D7402120B99121BC0AC
:101860007451120B99C082C0837402120B99121B1F
:10187000D2D083D082E582C39AFAE5839BFBC3EA88
:101880009EEB121BEF40C3740D120B99E070030224
:101890001A617419120B99E0A2E04003021A6174F4
:1018A00004120B99E064786005E064587010E088D9
:1018B000828983F0E824FF18E934FFF98017E06497
:1018C0006F6003021A617402120B99121C4164309A
:1018D0007003021A617402120B99121CA6120B9962
:1018E000121C0C7430021A607408120B997401F007
:1018F000A3E4F07404120B99E024FEF0EE4F700F95
:101900007E018012E4F07408120B99E4F0A3F01247
:101910001B9F50047E067F007464120B99121C8674
:10192000120B99121CAE120B99121C0C780C120A95
:10193000307406120B99E02404121C73120B9912D6
:101940001CC7120B99780C120A3F90027278081289
:101950000A30780C790812037D50227405120B9915
:10196000742DF07413120B997808120A30E50BB23B
:10197000E7F50B7413120B997808120A3F740A12D8
:101980000B997420120BA38909E028F8A3E035090C
:10199000F97402120B991211A3740D120B99E0F550
:1019A000087808120C677409120B99E0F50878089A
:1019B000120C677404120B99120C768E088F09783A
:1019C00008120C63740A120B99E0F97419120B993E
:1019D000120A4E1201657406120B637411120B99F0
:1019E000121CA0740E120B99E060767405120B990C
:1019F000E06004D2F08002C2F0740A120B99121B4C
:101A0000B27411120B99C082C0837402120B991226
:101A10001BE2D083D082E0C398F8A3E099F9C3E831
:101A20009EE9121BEF503A7402120B99121C061217
:101A30000B99121CA6120B99121C1D80C4851482CE
:101A4000851583121BC912119C7402120B9974CB59
:101A5000F0A37402F07411120B9974CEF0A3740207
:101A6000F07411120B99C082C0837402120B991288
:101A70001BE2D083D082E0C398FEA3E099FF740AF2
:101A8000120B99121BE6500A7408120B99E4F0A38A
:101A900080307405120B99E06004D2F08002C2F02D
:101AA000740A120B99E0C39EFAA3E09FFBA2F0E434
:101AB00033F8EA98F8EB9400F97408120B99E8F0FF
:101AC000A3E9F0740C120B99E0702B801974621268
:101AD0000B99121BD8120B99121C0C120BAB740F22
:101AE000120B99121CED7408120B99121C8C120B1C
:101AF0009912117950D77405120B99E060517462F4
:101B0000120B99121BD27405120B99E0F97417127B
:101B10000B99121C0C120BAB802D7462120B9912D4
:101B20001BD27402120B99121C4CF97417120B99E8
:101B3000121C0C120BAB7402120B99E0121B967460
:101B400002120B991211A3740F120B99121CEDEED5
:101B500024FF1EEF34FFFFC3121BA150BD740C12F3
:101B60000B99E070030211F97408120B99121C8C86
:101B7000120B9912117950030211F97462120B9928
:101B8000121BD8120B99121C0C120BAB740F120BF8
:101B900099121CED80D22401F8A3E03400F922C38D
:101BA000EF9400A2D265D03322E02401F0A3E03408
:101BB0000022A2F0E433F8E098FEA3E09400FF22B4
:101BC000121BC422121BC9F922E024FFF8A3E0343F
:101BD000FF22E0FAA3E0FB22E0FAA3E0FB79207405
:101BE0001722121C6A22C3E09EA3E0121BEF229F61
:101BF000A2D265D03322121BFA22A3E03400F98569
:101C0000148285158322121BC4740222121C102216
:101C1000121C1422E0F8A3E0F583888222121C1023
:101C20007430F022121C6AC3E498F8E49922121C62
:101C30003222E0FAA3E0F5838A8222851482851598
:101C400083121C32E022851482851583E0F8121C71
:101C500016E022851482851583121C10E0F82212EA
:101C60001C6322121C14121C6A22E0F8A3E0F92261
:101C7000E02402F8A3E03400F9746422121C63E843
:101C8000FAE9FB741322121C63740622E024FFF0AD
:101C9000A3E034FFF0740822E0FCA3E0F5838C821B
:101CA000EAF0A3EBF022E8F0A3E9F0740222E8F0F6
:101CB000A3E9F0740622EAF0A3EB121CC07406221A
:101CC000F0A3E4F0A3F022121C32E8F0A3E9F074D0
:101CD0001322121CD622F0851482851583E022126D
:101CE0001CD6121C15E022851482851583E0240180
:101CF000F0A3E03400F022E8F0A3E9121CD624019E
:101D0000F8121BFAE8F0A3E92275080075090075BE
:101D10000C00750D00750E00750F00751000751123
:101D20000075120075130012012F1201477A007915
:101D3000001201538052850C10850D11850E1285FD
:101D40000F139002667808120A307810790812038F
:101D5000C990026A7808120A307810790812056E64
:101D6000780C120C5F7810120C5F7C447D027A00B4
:101D70007B021201777408120B637A007B02120156
:101D80005F7A017B0012013B12014D8A0A8B0B85A1
:101D90000A08850B0985080C85090DE4F50EF50F79
:101DA000780C1201BE90026E7808120A30780C7915
:101DB000081203C99002727808120A30780C790868
:101DC00012032E503E9002767808120A30780C7971
:101DD0000812037D502D850C10850D11850E12857E
:101DE0000F1390027A7808120A30781079081203DB
:101DF000C990027E7808120A307810790812056EB0
:101E0000021D609002767808120A30780C79081268
:101E1000032E503E9002827808120A30780C79081E
:101E200012037D502D850C10850D11850E12850F26
:101E3000139002867808120A30781079081203C9C4
:101E400090028A7808120A307810790812056E021A
:101E50001D609002827808120A30780C790812030B
:101E60002E4003021D3690028E7808120A30780C3C
:101E7000790812037D4003021D36850C10850D1173
:101E8000850E12850F139002927808120A3078108E
:101E900079081203C99002967808120A30781079EE
:101EA0000812056E021D6074F0120BADE9FBEB60C9
:101EB000708B0875090074077808120B3AE4F50A6C
:101EC000F50BEBF87900E875F072A4C8AAF075F08C
:101ED00000A42AFA75F072E9A42AF9880CE9F50D34
:101EE0003395E0F50EF50F7808790C120A0AE5C66D
:101EF000540778081209F185080C85090D850A0E2A
:101F0000850B0F850C08850D09850E0A850F0B9032
:101F100002407808120A1DE50C450D450E450F706C
:101F2000D67F08020C1974F7120BADEAFEEBFF80A6
:101F3000077ADE7B03120141EEF8EFF9E824FFFE99
:101F4000E934FFFFE84970E97F01020C1974F412CB
:101F50000BADEAFCEBFDECF8EDF97AFA7B00120A26
:101F6000E1880A890B850A08850B09ECF8EDF97AF6
:101F7000FA7B00120AE18A0A8B0BAE0AAF0B8005CE
:101F800079FA120135A808A909E824FFF508E9340F
:101F9000FFF509E84970E9EEF91201357F04020CFA
:101FA00019C082C0838A828B8312202EE9F08A8234
:101FB0008B83E02401FCA3E03400FD8A828B83EC58
:101FC000F0A3EDF0D083D08202006C74F6120BAD5A
:101FD00074FC120B4D7402120B99EAF0A3EBF0ECB7
:101FE000FAEDFB740E120BA3851482851583E8F0BD
:101FF000A3E9F0A814A915880889097808120C63C8
:102000007404120BA3880889097808120C637C7188
:102010007D0112016B7404120B637402120B99128E
:10202000202EE4F07404120B637F02020C19E0F816
:10203000A3E0F58388822243F4C043F10253F5DF25
:1020400075F8C075FC0A75FA3BE94A42FB02006C60
:1020500089F9A2EA50FCC2EA02006C74F7120BADD7
:10206000EAFEEBFF80128E828F83E0F91201598E17
:10207000828F83A3AE82AF838E828F83E070E77FEF
:1020800001020C1943F22043F32053FDDF75B6B56E
:1020900043B43002006CC008C00975B6B543B43013
:1020A00043B440E5B4A2E750FAE5BA1313543FFA3B
:1020B0007B00E5BBF50875090074047808120B3A3B
:1020C000E5084AFAE5094BFBD009D00802006C5339
:0E20D000C6BFE59EA2E640FA53C6F802006CB9
:0400000500000054A3
:00000001FF
